{
  "contractName": "Accounts",
  "abi": [
    {
      "constant": true,
      "inputs": [],
      "name": "acCount",
      "outputs": [
        {
          "name": "",
          "type": "uint256"
        }
      ],
      "payable": false,
      "stateMutability": "view",
      "type": "function",
      "signature": "0xb8e81da5"
    },
    {
      "constant": true,
      "inputs": [
        {
          "name": "",
          "type": "uint256"
        }
      ],
      "name": "accounts",
      "outputs": [
        {
          "name": "email",
          "type": "string"
        },
        {
          "name": "psWord",
          "type": "string"
        },
        {
          "name": "isMerchant",
          "type": "bool"
        }
      ],
      "payable": false,
      "stateMutability": "view",
      "type": "function",
      "signature": "0xf2a40db8"
    },
    {
      "constant": false,
      "inputs": [
        {
          "name": "email",
          "type": "string"
        },
        {
          "name": "psWord",
          "type": "string"
        }
      ],
      "name": "createAccount",
      "outputs": [],
      "payable": false,
      "stateMutability": "nonpayable",
      "type": "function",
      "signature": "0x19289287"
    },
    {
      "constant": false,
      "inputs": [
        {
          "name": "email",
          "type": "string"
        }
      ],
      "name": "delAccount",
      "outputs": [],
      "payable": false,
      "stateMutability": "nonpayable",
      "type": "function",
      "signature": "0x2e50177e"
    },
    {
      "constant": false,
      "inputs": [
        {
          "name": "num",
          "type": "uint256"
        }
      ],
      "name": "setMerchant",
      "outputs": [],
      "payable": false,
      "stateMutability": "nonpayable",
      "type": "function",
      "signature": "0xaf9b1df0"
    }
  ],
  "bytecode": "0x60806040526000805534801561001457600080fd5b50610c20806100246000396000f3fe60806040526004361061006d576000357c0100000000000000000000000000000000000000000000000000000000900463ffffffff16806319289287146100725780632e50177e146101d1578063af9b1df014610299578063b8e81da5146102d4578063f2a40db8146102ff575b600080fd5b34801561007e57600080fd5b506101cf6004803603604081101561009557600080fd5b81019080803590602001906401000000008111156100b257600080fd5b8201836020820111156100c457600080fd5b803590602001918460018302840111640100000000831117156100e657600080fd5b91908080601f016020809104026020016040519081016040528093929190818152602001838380828437600081840152601f19601f8201169050808301925050505050505091929192908035906020019064010000000081111561014957600080fd5b82018360208201111561015b57600080fd5b8035906020019184600183028401116401000000008311171561017d57600080fd5b91908080601f016020809104026020016040519081016040528093929190818152602001838380828437600081840152601f19601f82011690508083019250505050505050919291929050505061042a565b005b3480156101dd57600080fd5b50610297600480360360208110156101f457600080fd5b810190808035906020019064010000000081111561021157600080fd5b82018360208201111561022357600080fd5b8035906020019184600183028401116401000000008311171561024557600080fd5b91908080601f016020809104026020016040519081016040528093929190818152602001838380828437600081840152601f19601f8201169050808301925050505050505091929192905050506104ca565b005b3480156102a557600080fd5b506102d2600480360360208110156102bc57600080fd5b8101908080359060200190929190505050610730565b005b3480156102e057600080fd5b506102e961093e565b6040518082815260200191505060405180910390f35b34801561030b57600080fd5b506103386004803603602081101561032257600080fd5b8101908080359060200190929190505050610944565b60405180806020018060200184151515158152602001838103835286818151815260200191508051906020019080838360005b8381101561038657808201518184015260208101905061036b565b50505050905090810190601f1680156103b35780820380516001836020036101000a031916815260200191505b50838103825285818151815260200191508051906020019080838360005b838110156103ec5780820151818401526020810190506103d1565b50505050905090810190601f1680156104195780820380516001836020036101000a031916815260200191505b509550505050505060405180910390f35b6060604051908101604052808381526020018281526020016000151581525060016000806000815460010191905081905581526020019081526020016000206000820151816000019080519060200190610485929190610aab565b5060208201518160010190805190602001906104a2929190610aab565b5060408201518160020160006101000a81548160ff0219169083151502179055509050505050565b6000600190505b6000548111151561072c5773__StringLib_____________________________63ef01a9a883600160008581526020019081526020016000206000016040518363ffffffff167c0100000000000000000000000000000000000000000000000000000000028152600401808060200180602001838103835285818151815260200191508051906020019080838360005b8381101561057c578082015181840152602081019050610561565b50505050905090810190601f1680156105a95780820380516001836020036101000a031916815260200191505b5083810382528481815460018160011615610100020316600290048152602001915080546001816001161561010002031660029004801561062b5780601f106106005761010080835404028352916020019161062b565b820191906000526020600020905b81548152906001019060200180831161060e57829003601f168201915b505094505050505060206040518083038186803b15801561064b57600080fd5b505af415801561065f573d6000803e3d6000fd5b505050506040513d602081101561067557600080fd5b81019080805190602001909291905050501561071f576000548114156106a8576000808154809291906001900391905055505b60206040519081016040528060008152506001600083815260200190815260200160002060000190805190602001906106e2929190610b2b565b50602060405190810160405280600081525060016000838152602001908152602001600020600101908051906020019061071d929190610b2b565b505b80806001019150506104d1565b5050565b610738610bab565b6001600083815260200190815260200160002060606040519081016040529081600082018054600181600116156101000203166002900480601f0160208091040260200160405190810160405280929190818152602001828054600181600116156101000203166002900480156107f05780601f106107c5576101008083540402835291602001916107f0565b820191906000526020600020905b8154815290600101906020018083116107d357829003601f168201915b50505050508152602001600182018054600181600116156101000203166002900480601f0160208091040260200160405190810160405280929190818152602001828054600181600116156101000203166002900480156108925780601f1061086757610100808354040283529160200191610892565b820191906000526020600020905b81548152906001019060200180831161087557829003601f168201915b505050505081526020016002820160009054906101000a900460ff16151515158152505090506001816040019015159081151581525050806001600084815260200190815260200160002060008201518160000190805190602001906108f9929190610aab565b506020820151816001019080519060200190610916929190610aab565b5060408201518160020160006101000a81548160ff0219169083151502179055509050505050565b60005481565b6001602052806000526040600020600091509050806000018054600181600116156101000203166002900480601f0160208091040260200160405190810160405280929190818152602001828054600181600116156101000203166002900480156109f05780601f106109c5576101008083540402835291602001916109f0565b820191906000526020600020905b8154815290600101906020018083116109d357829003601f168201915b505050505090806001018054600181600116156101000203166002900480601f016020809104026020016040519081016040528092919081815260200182805460018160011615610100020316600290048015610a8e5780601f10610a6357610100808354040283529160200191610a8e565b820191906000526020600020905b815481529060010190602001808311610a7157829003601f168201915b5050505050908060020160009054906101000a900460ff16905083565b828054600181600116156101000203166002900490600052602060002090601f016020900481019282601f10610aec57805160ff1916838001178555610b1a565b82800160010185558215610b1a579182015b82811115610b19578251825591602001919060010190610afe565b5b509050610b279190610bcf565b5090565b828054600181600116156101000203166002900490600052602060002090601f016020900481019282601f10610b6c57805160ff1916838001178555610b9a565b82800160010185558215610b9a579182015b82811115610b99578251825591602001919060010190610b7e565b5b509050610ba79190610bcf565b5090565b60606040519081016040528060608152602001606081526020016000151581525090565b610bf191905b80821115610bed576000816000905550600101610bd5565b5090565b9056fea165627a7a72305820148854c77f8f2a033c8c8b26af040e266622071681b8cd5b994ac5d66ca31e380029",
  "source": "// SPDX-License-Identifier: MIT\npragma solidity >=0.4.22 <0.9.0;\n\nimport \"./StringLib.sol\";\n\ncontract Accounts {\n    uint256 public acCount = 0;\n\n    struct Account {\n        string email;\n        string psWord;\n        bool isMerchant;\n    }\n\n    mapping(uint256 => Account) public accounts;\n\n    function createAccount(string memory email, string memory psWord) public {\n        accounts[++acCount] = Account(email, psWord, false);\n    }\n\n    function delAccount(string memory email) public {\n        for (uint256 i = 1; i <= acCount; i++) {\n            if (StringLib.compareTwoStrings(email, accounts[i].email)) {\n                if (i == acCount) {\n                    acCount--;\n                }\n\n                accounts[i].email = \"\";\n                accounts[i].psWord = \"\";\n            }\n        }\n    }\n\n    function setMerchant(uint256 num) public {\n        Account memory tempAccount = accounts[num];\n        tempAccount.isMerchant = true;\n        accounts[num] = tempAccount;\n    }\n}\n",
  "sourcePath": "/home/a_rahim/KDU/FYP Project/finalapp/src/Truffle - Backend/contracts/Accounts.sol",
  "compiler": {
    "name": "solc",
    "version": "0.5.0+commit.1d4f565a.Emscripten.clang"
  },
  "schemaVersion": "3.0.1",
  "updatedAt": "2022-10-09T05:18:42.871Z",
  "devdoc": {
    "methods": {}
  },
  "userdoc": {
    "methods": {}
  }
}