{
  "contractName": "Accounts",
  "abi": [
    {
      "constant": true,
      "inputs": [],
      "name": "acCount",
      "outputs": [
        {
          "name": "",
          "type": "uint256"
        }
      ],
      "payable": false,
      "stateMutability": "view",
      "type": "function",
      "signature": "0xb8e81da5"
    },
    {
      "constant": true,
      "inputs": [
        {
          "name": "",
          "type": "uint256"
        }
      ],
      "name": "accounts",
      "outputs": [
        {
          "name": "email",
          "type": "string"
        },
        {
          "name": "psWord",
          "type": "string"
        },
        {
          "name": "isMerchant",
          "type": "bool"
        }
      ],
      "payable": false,
      "stateMutability": "view",
      "type": "function",
      "signature": "0xf2a40db8"
    },
    {
      "constant": false,
      "inputs": [
        {
          "name": "email",
          "type": "string"
        },
        {
          "name": "psWord",
          "type": "string"
        }
      ],
      "name": "createAccount",
      "outputs": [],
      "payable": false,
      "stateMutability": "nonpayable",
      "type": "function",
      "signature": "0x19289287"
    },
    {
      "constant": false,
      "inputs": [
        {
          "name": "id",
          "type": "uint256"
        }
      ],
      "name": "delAccount",
      "outputs": [],
      "payable": false,
      "stateMutability": "nonpayable",
      "type": "function",
      "signature": "0x8241e39d"
    },
    {
      "constant": false,
      "inputs": [
        {
          "name": "id",
          "type": "uint256"
        }
      ],
      "name": "setMerchant",
      "outputs": [],
      "payable": false,
      "stateMutability": "nonpayable",
      "type": "function",
      "signature": "0xaf9b1df0"
    }
  ],
  "bytecode": "0x60806040526000805534801561001457600080fd5b506109c3806100246000396000f3fe60806040526004361061006d576000357c0100000000000000000000000000000000000000000000000000000000900463ffffffff16806319289287146100725780638241e39d146101d1578063af9b1df01461020c578063b8e81da514610247578063f2a40db814610272575b600080fd5b34801561007e57600080fd5b506101cf6004803603604081101561009557600080fd5b81019080803590602001906401000000008111156100b257600080fd5b8201836020820111156100c457600080fd5b803590602001918460018302840111640100000000831117156100e657600080fd5b91908080601f016020809104026020016040519081016040528093929190818152602001838380828437600081840152601f19601f8201169050808301925050505050505091929192908035906020019064010000000081111561014957600080fd5b82018360208201111561015b57600080fd5b8035906020019184600183028401116401000000008311171561017d57600080fd5b91908080601f016020809104026020016040519081016040528093929190818152602001838380828437600081840152601f19601f82011690508083019250505050505050919291929050505061039d565b005b3480156101dd57600080fd5b5061020a600480360360208110156101f457600080fd5b810190808035906020019092919050505061043d565b005b34801561021857600080fd5b506102456004803603602081101561022f57600080fd5b81019080803590602001909291905050506104d3565b005b34801561025357600080fd5b5061025c6106e1565b6040518082815260200191505060405180910390f35b34801561027e57600080fd5b506102ab6004803603602081101561029557600080fd5b81019080803590602001909291905050506106e7565b60405180806020018060200184151515158152602001838103835286818151815260200191508051906020019080838360005b838110156102f95780820151818401526020810190506102de565b50505050905090810190601f1680156103265780820380516001836020036101000a031916815260200191505b50838103825285818151815260200191508051906020019080838360005b8381101561035f578082015181840152602081019050610344565b50505050905090810190601f16801561038c5780820380516001836020036101000a031916815260200191505b509550505050505060405180910390f35b60606040519081016040528083815260200182815260200160001515815250600160008060008154600101919050819055815260200190815260200160002060008201518160000190805190602001906103f892919061084e565b50602082015181600101908051906020019061041592919061084e565b5060408201518160020160006101000a81548160ff0219169083151502179055509050505050565b60005481141561045a576000808154809291906001900391905055505b60206040519081016040528060008152506001600083815260200190815260200160002060000190805190602001906104949291906108ce565b5060206040519081016040528060008152506001600083815260200190815260200160002060010190805190602001906104cf9291906108ce565b5050565b6104db61094e565b6001600083815260200190815260200160002060606040519081016040529081600082018054600181600116156101000203166002900480601f0160208091040260200160405190810160405280929190818152602001828054600181600116156101000203166002900480156105935780601f1061056857610100808354040283529160200191610593565b820191906000526020600020905b81548152906001019060200180831161057657829003601f168201915b50505050508152602001600182018054600181600116156101000203166002900480601f0160208091040260200160405190810160405280929190818152602001828054600181600116156101000203166002900480156106355780601f1061060a57610100808354040283529160200191610635565b820191906000526020600020905b81548152906001019060200180831161061857829003601f168201915b505050505081526020016002820160009054906101000a900460ff161515151581525050905060018160400190151590811515815250508060016000848152602001908152602001600020600082015181600001908051906020019061069c92919061084e565b5060208201518160010190805190602001906106b992919061084e565b5060408201518160020160006101000a81548160ff0219169083151502179055509050505050565b60005481565b6001602052806000526040600020600091509050806000018054600181600116156101000203166002900480601f0160208091040260200160405190810160405280929190818152602001828054600181600116156101000203166002900480156107935780601f1061076857610100808354040283529160200191610793565b820191906000526020600020905b81548152906001019060200180831161077657829003601f168201915b505050505090806001018054600181600116156101000203166002900480601f0160208091040260200160405190810160405280929190818152602001828054600181600116156101000203166002900480156108315780601f1061080657610100808354040283529160200191610831565b820191906000526020600020905b81548152906001019060200180831161081457829003601f168201915b5050505050908060020160009054906101000a900460ff16905083565b828054600181600116156101000203166002900490600052602060002090601f016020900481019282601f1061088f57805160ff19168380011785556108bd565b828001600101855582156108bd579182015b828111156108bc5782518255916020019190600101906108a1565b5b5090506108ca9190610972565b5090565b828054600181600116156101000203166002900490600052602060002090601f016020900481019282601f1061090f57805160ff191683800117855561093d565b8280016001018555821561093d579182015b8281111561093c578251825591602001919060010190610921565b5b50905061094a9190610972565b5090565b60606040519081016040528060608152602001606081526020016000151581525090565b61099491905b80821115610990576000816000905550600101610978565b5090565b9056fea165627a7a72305820d628e47d2fa5ab08125ee3e0c4e4cfd8e4733b667791da806f0f5bf51a3a24f40029",
  "source": "// SPDX-License-Identifier: MIT\npragma solidity >=0.4.22 <0.9.0;\n\ncontract Accounts {\n    uint256 public acCount = 0;\n\n    struct Account {\n        string email;\n        string psWord;\n        bool isMerchant;\n    }\n\n    mapping(uint256 => Account) public accounts;\n\n    function createAccount(string memory email, string memory psWord) public {\n        accounts[++acCount] = Account(email, psWord, false);\n    }\n\n    function delAccount(uint256 id) public {\n        if (id == acCount) {\n            acCount--;\n        }\n\n        accounts[id].email = \"\";\n        accounts[id].psWord = \"\";\n    }\n\n    function setMerchant(uint256 id) public {\n        Account memory tempAccount = accounts[id];\n        tempAccount.isMerchant = true;\n        accounts[id] = tempAccount;\n    }\n}\n",
  "sourcePath": "/home/a_rahim/KDU/FYP Project/finalapp/src/Truffle - Backend/contracts/Accounts.sol",
  "compiler": {
    "name": "solc",
    "version": "0.5.0+commit.1d4f565a.Emscripten.clang"
  },
  "schemaVersion": "3.0.1",
  "updatedAt": "2022-10-09T09:00:33.103Z",
  "devdoc": {
    "methods": {}
  },
  "userdoc": {
    "methods": {}
  }
}