{
  "contractName": "Accounts",
  "abi": [
    {
      "constant": true,
      "inputs": [
        {
          "name": "",
          "type": "uint256"
        }
      ],
      "name": "purchases",
      "outputs": [
        {
          "name": "prodName",
          "type": "string"
        },
        {
          "name": "price",
          "type": "uint256"
        },
        {
          "name": "prFloat",
          "type": "uint256"
        },
        {
          "name": "quantity",
          "type": "uint256"
        },
        {
          "name": "total",
          "type": "uint256"
        },
        {
          "name": "totFloat",
          "type": "uint256"
        },
        {
          "name": "email",
          "type": "string"
        },
        {
          "name": "isPaid",
          "type": "bool"
        }
      ],
      "payable": false,
      "stateMutability": "view",
      "type": "function",
      "signature": "0x8392fe31"
    },
    {
      "constant": true,
      "inputs": [],
      "name": "acCount",
      "outputs": [
        {
          "name": "",
          "type": "uint256"
        }
      ],
      "payable": false,
      "stateMutability": "view",
      "type": "function",
      "signature": "0xb8e81da5"
    },
    {
      "constant": true,
      "inputs": [
        {
          "name": "",
          "type": "uint256"
        }
      ],
      "name": "accounts",
      "outputs": [
        {
          "name": "email",
          "type": "string"
        },
        {
          "name": "psWord",
          "type": "string"
        },
        {
          "name": "isMerchant",
          "type": "bool"
        }
      ],
      "payable": false,
      "stateMutability": "view",
      "type": "function",
      "signature": "0xf2a40db8"
    },
    {
      "constant": true,
      "inputs": [],
      "name": "purchCount",
      "outputs": [
        {
          "name": "",
          "type": "uint256"
        }
      ],
      "payable": false,
      "stateMutability": "view",
      "type": "function",
      "signature": "0xfae7f733"
    },
    {
      "constant": false,
      "inputs": [
        {
          "name": "name",
          "type": "string"
        },
        {
          "name": "price",
          "type": "uint256"
        },
        {
          "name": "prFloat",
          "type": "uint256"
        },
        {
          "name": "total",
          "type": "uint256"
        },
        {
          "name": "totFloat",
          "type": "uint256"
        },
        {
          "name": "quantity",
          "type": "uint256"
        },
        {
          "name": "email",
          "type": "string"
        }
      ],
      "name": "buyProduct",
      "outputs": [],
      "payable": false,
      "stateMutability": "nonpayable",
      "type": "function",
      "signature": "0x36d1a41d"
    },
    {
      "constant": false,
      "inputs": [
        {
          "name": "id",
          "type": "uint256[]"
        }
      ],
      "name": "finalisePurchases",
      "outputs": [],
      "payable": false,
      "stateMutability": "nonpayable",
      "type": "function",
      "signature": "0x67654147"
    },
    {
      "constant": false,
      "inputs": [
        {
          "name": "email",
          "type": "string"
        },
        {
          "name": "psWord",
          "type": "string"
        }
      ],
      "name": "createAccount",
      "outputs": [],
      "payable": false,
      "stateMutability": "nonpayable",
      "type": "function",
      "signature": "0x19289287"
    },
    {
      "constant": false,
      "inputs": [
        {
          "name": "id",
          "type": "uint256"
        }
      ],
      "name": "delAccount",
      "outputs": [],
      "payable": false,
      "stateMutability": "nonpayable",
      "type": "function",
      "signature": "0x8241e39d"
    },
    {
      "constant": false,
      "inputs": [
        {
          "name": "id",
          "type": "uint256"
        }
      ],
      "name": "setMerchant",
      "outputs": [],
      "payable": false,
      "stateMutability": "nonpayable",
      "type": "function",
      "signature": "0xaf9b1df0"
    }
  ],
  "bytecode": "0x608060405260008055600060025534801561001957600080fd5b5061133b806100296000396000f3fe608060405260043610610099576000357c0100000000000000000000000000000000000000000000000000000000900463ffffffff168063192892871461009e57806336d1a41d146101fd578063676541471461038e5780638241e39d146104535780638392fe311461048e578063af9b1df0146105dc578063b8e81da514610617578063f2a40db814610642578063fae7f7331461076d575b600080fd5b3480156100aa57600080fd5b506101fb600480360360408110156100c157600080fd5b81019080803590602001906401000000008111156100de57600080fd5b8201836020820111156100f057600080fd5b8035906020019184600183028401116401000000008311171561011257600080fd5b91908080601f016020809104026020016040519081016040528093929190818152602001838380828437600081840152601f19601f8201169050808301925050505050505091929192908035906020019064010000000081111561017557600080fd5b82018360208201111561018757600080fd5b803590602001918460018302840111640100000000831117156101a957600080fd5b91908080601f016020809104026020016040519081016040528093929190818152602001838380828437600081840152601f19601f820116905080830192505050505050509192919290505050610798565b005b34801561020957600080fd5b5061038c600480360360e081101561022057600080fd5b810190808035906020019064010000000081111561023d57600080fd5b82018360208201111561024f57600080fd5b8035906020019184600183028401116401000000008311171561027157600080fd5b91908080601f016020809104026020016040519081016040528093929190818152602001838380828437600081840152601f19601f82011690508083019250505050505050919291929080359060200190929190803590602001909291908035906020019092919080359060200190929190803590602001909291908035906020019064010000000081111561030657600080fd5b82018360208201111561031857600080fd5b8035906020019184600183028401116401000000008311171561033a57600080fd5b91908080601f016020809104026020016040519081016040528093929190818152602001838380828437600081840152601f19601f820116905080830192505050505050509192919290505050610838565b005b34801561039a57600080fd5b50610451600480360360208110156103b157600080fd5b81019080803590602001906401000000008111156103ce57600080fd5b8201836020820111156103e057600080fd5b8035906020019184602083028401116401000000008311171561040257600080fd5b919080806020026020016040519081016040528093929190818152602001838360200280828437600081840152601f19601f82011690508083019250505050505050919291929050505061092f565b005b34801561045f57600080fd5b5061048c6004803603602081101561047657600080fd5b8101908080359060200190929190505050610be2565b005b34801561049a57600080fd5b506104c7600480360360208110156104b157600080fd5b8101908080359060200190929190505050610c78565b6040518080602001898152602001888152602001878152602001868152602001858152602001806020018415151515815260200183810383528b818151815260200191508051906020019080838360005b83811015610533578082015181840152602081019050610518565b50505050905090810190601f1680156105605780820380516001836020036101000a031916815260200191505b50838103825285818151815260200191508051906020019080838360005b8381101561059957808201518184015260208101905061057e565b50505050905090810190601f1680156105c65780820380516001836020036101000a031916815260200191505b509a505050505050505050505060405180910390f35b3480156105e857600080fd5b50610615600480360360208110156105ff57600080fd5b8101908080359060200190929190505050610dfd565b005b34801561062357600080fd5b5061062c61100b565b6040518082815260200191505060405180910390f35b34801561064e57600080fd5b5061067b6004803603602081101561066557600080fd5b8101908080359060200190929190505050611011565b60405180806020018060200184151515158152602001838103835286818151815260200191508051906020019080838360005b838110156106c95780820151818401526020810190506106ae565b50505050905090810190601f1680156106f65780820380516001836020036101000a031916815260200191505b50838103825285818151815260200191508051906020019080838360005b8381101561072f578082015181840152602081019050610714565b50505050905090810190601f16801561075c5780820380516001836020036101000a031916815260200191505b509550505050505060405180910390f35b34801561077957600080fd5b50610782611178565b6040518082815260200191505060405180910390f35b60606040519081016040528083815260200182815260200160001515815250600160008060008154600101919050819055815260200190815260200160002060008201518160000190805190602001906107f392919061117e565b50602082015181600101908051906020019061081092919061117e565b5060408201518160020160006101000a81548160ff0219169083151502179055509050505050565b610100604051908101604052808881526020018781526020018681526020018381526020018581526020018481526020018281526020016000151581525060036000600260008154600101919050819055815260200190815260200160002060008201518160000190805190602001906108b392919061117e565b506020820151816001015560408201518160020155606082015181600301556080820151816004015560a0820151816005015560c082015181600601908051906020019061090292919061117e565b5060e08201518160070160006101000a81548160ff02191690831515021790555090505050505050505050565b60008151905060008090505b81811015610bdd576000838281518110151561095357fe5b9060200190602002015190506109676111fe565b600360008381526020019081526020016000206101006040519081016040529081600082018054600181600116156101000203166002900480601f016020809104026020016040519081016040528092919081815260200182805460018160011615610100020316600290048015610a205780601f106109f557610100808354040283529160200191610a20565b820191906000526020600020905b815481529060010190602001808311610a0357829003601f168201915b505050505081526020016001820154815260200160028201548152602001600382015481526020016004820154815260200160058201548152602001600682018054600181600116156101000203166002900480601f016020809104026020016040519081016040528092919081815260200182805460018160011615610100020316600290048015610af45780601f10610ac957610100808354040283529160200191610af4565b820191906000526020600020905b815481529060010190602001808311610ad757829003601f168201915b505050505081526020016007820160009054906101000a900460ff161515151581525050905060018160e001901515908115158152505080600360008481526020019081526020016000206000820151816000019080519060200190610b5b92919061117e565b506020820151816001015560408201518160020155606082015181600301556080820151816004015560a0820151816005015560c0820151816006019080519060200190610baa92919061117e565b5060e08201518160070160006101000a81548160ff0219169083151502179055509050505050808060010191505061093b565b505050565b600054811415610bff576000808154809291906001900391905055505b6020604051908101604052806000815250600160008381526020019081526020016000206000019080519060200190610c39929190611246565b506020604051908101604052806000815250600160008381526020019081526020016000206001019080519060200190610c74929190611246565b5050565b6003602052806000526040600020600091509050806000018054600181600116156101000203166002900480601f016020809104026020016040519081016040528092919081815260200182805460018160011615610100020316600290048015610d245780601f10610cf957610100808354040283529160200191610d24565b820191906000526020600020905b815481529060010190602001808311610d0757829003601f168201915b505050505090806001015490806002015490806003015490806004015490806005015490806006018054600181600116156101000203166002900480601f016020809104026020016040519081016040528092919081815260200182805460018160011615610100020316600290048015610de05780601f10610db557610100808354040283529160200191610de0565b820191906000526020600020905b815481529060010190602001808311610dc357829003601f168201915b5050505050908060070160009054906101000a900460ff16905088565b610e056112c6565b6001600083815260200190815260200160002060606040519081016040529081600082018054600181600116156101000203166002900480601f016020809104026020016040519081016040528092919081815260200182805460018160011615610100020316600290048015610ebd5780601f10610e9257610100808354040283529160200191610ebd565b820191906000526020600020905b815481529060010190602001808311610ea057829003601f168201915b50505050508152602001600182018054600181600116156101000203166002900480601f016020809104026020016040519081016040528092919081815260200182805460018160011615610100020316600290048015610f5f5780601f10610f3457610100808354040283529160200191610f5f565b820191906000526020600020905b815481529060010190602001808311610f4257829003601f168201915b505050505081526020016002820160009054906101000a900460ff1615151515815250509050600181604001901515908115158152505080600160008481526020019081526020016000206000820151816000019080519060200190610fc692919061117e565b506020820151816001019080519060200190610fe392919061117e565b5060408201518160020160006101000a81548160ff0219169083151502179055509050505050565b60005481565b6001602052806000526040600020600091509050806000018054600181600116156101000203166002900480601f0160208091040260200160405190810160405280929190818152602001828054600181600116156101000203166002900480156110bd5780601f10611092576101008083540402835291602001916110bd565b820191906000526020600020905b8154815290600101906020018083116110a057829003601f168201915b505050505090806001018054600181600116156101000203166002900480601f01602080910402602001604051908101604052809291908181526020018280546001816001161561010002031660029004801561115b5780601f106111305761010080835404028352916020019161115b565b820191906000526020600020905b81548152906001019060200180831161113e57829003601f168201915b5050505050908060020160009054906101000a900460ff16905083565b60025481565b828054600181600116156101000203166002900490600052602060002090601f016020900481019282601f106111bf57805160ff19168380011785556111ed565b828001600101855582156111ed579182015b828111156111ec5782518255916020019190600101906111d1565b5b5090506111fa91906112ea565b5090565b61010060405190810160405280606081526020016000815260200160008152602001600081526020016000815260200160008152602001606081526020016000151581525090565b828054600181600116156101000203166002900490600052602060002090601f016020900481019282601f1061128757805160ff19168380011785556112b5565b828001600101855582156112b5579182015b828111156112b4578251825591602001919060010190611299565b5b5090506112c291906112ea565b5090565b60606040519081016040528060608152602001606081526020016000151581525090565b61130c91905b808211156113085760008160009055506001016112f0565b5090565b9056fea165627a7a72305820b1db321dfaf815b808579260f0673df820c4d60569883c1d0bf73b46be37b53a0029",
  "source": "// SPDX-License-Identifier: MIT\npragma solidity >=0.4.22 <0.9.0;\n\ncontract Accounts {\n    uint256 public acCount = 0;\n\n    struct Account {\n        string email;\n        string psWord;\n        bool isMerchant;\n    }\n\n    mapping(uint256 => Account) public accounts;\n\n    // purchases will hold things that are either in the cart or in the purchase history\n    uint256 public purchCount = 0;\n\n    struct Purchase {\n        string prodName;\n        uint256 price;\n        uint256 prFloat;\n        uint256 quantity;\n        uint256 total;\n        uint256 totFloat;\n        string email;\n        bool isPaid; // If true this product will be displayed in the purchase history, if not it will be in the cart\n    }\n\n    mapping(uint256 => Purchase) public purchases;\n\n    function buyProduct(\n        string memory name,\n        uint256 price,\n        uint256 prFloat,\n        uint256 total,\n        uint256 totFloat,\n        uint256 quantity,\n        string memory email\n    ) public {\n        purchases[++purchCount] = Purchase(\n            name,\n            price,\n            prFloat,\n            quantity,\n            total,\n            totFloat,\n            email,\n            false\n        );\n    }\n\n    function finalisePurchases(uint256[] memory id) public {\n        uint256 count = id.length;\n        for (uint256 i = 0; i < count; i++) {\n            uint256 index = id[i];\n            Purchase memory _temp = purchases[index];\n            _temp.isPaid = true;\n            purchases[index] = _temp;\n        }\n    }\n\n    function createAccount(string memory email, string memory psWord) public {\n        accounts[++acCount] = Account(email, psWord, false);\n    }\n\n    function delAccount(uint256 id) public {\n        if (id == acCount) {\n            acCount--;\n        }\n\n        accounts[id].email = \"\";\n        accounts[id].psWord = \"\";\n    }\n\n    function setMerchant(uint256 id) public {\n        Account memory tempAccount = accounts[id];\n        tempAccount.isMerchant = true;\n        accounts[id] = tempAccount;\n    }\n}\n",
  "sourcePath": "/home/a_rahim/KDU/FYP Project/finalapp/src/Truffle - Backend/contracts/Accounts.sol",
  "compiler": {
    "name": "solc",
    "version": "0.5.0+commit.1d4f565a.Emscripten.clang"
  },
  "schemaVersion": "3.0.1",
  "updatedAt": "2022-10-19T02:38:41.501Z",
  "devdoc": {
    "methods": {}
  },
  "userdoc": {
    "methods": {}
  }
}