{
  "contractName": "Accounts",
  "abi": [
    {
      "constant": true,
      "inputs": [
        {
          "name": "",
          "type": "uint256"
        }
      ],
      "name": "purchases",
      "outputs": [
        {
          "name": "prodId",
          "type": "uint256"
        },
        {
          "name": "prodName",
          "type": "string"
        },
        {
          "name": "price",
          "type": "uint256"
        },
        {
          "name": "prFloat",
          "type": "uint256"
        },
        {
          "name": "quantity",
          "type": "uint256"
        },
        {
          "name": "total",
          "type": "uint256"
        },
        {
          "name": "totFloat",
          "type": "uint256"
        },
        {
          "name": "email",
          "type": "string"
        },
        {
          "name": "isPaid",
          "type": "bool"
        }
      ],
      "payable": false,
      "stateMutability": "view",
      "type": "function",
      "signature": "0x8392fe31"
    },
    {
      "constant": true,
      "inputs": [],
      "name": "acCount",
      "outputs": [
        {
          "name": "",
          "type": "uint256"
        }
      ],
      "payable": false,
      "stateMutability": "view",
      "type": "function",
      "signature": "0xb8e81da5"
    },
    {
      "constant": true,
      "inputs": [
        {
          "name": "",
          "type": "uint256"
        }
      ],
      "name": "accounts",
      "outputs": [
        {
          "name": "email",
          "type": "string"
        },
        {
          "name": "psWord",
          "type": "string"
        },
        {
          "name": "isMerchant",
          "type": "bool"
        }
      ],
      "payable": false,
      "stateMutability": "view",
      "type": "function",
      "signature": "0xf2a40db8"
    },
    {
      "constant": true,
      "inputs": [],
      "name": "purchCount",
      "outputs": [
        {
          "name": "",
          "type": "uint256"
        }
      ],
      "payable": false,
      "stateMutability": "view",
      "type": "function",
      "signature": "0xfae7f733"
    },
    {
      "constant": false,
      "inputs": [
        {
          "name": "id",
          "type": "uint256"
        },
        {
          "name": "name",
          "type": "string"
        },
        {
          "name": "price",
          "type": "uint256"
        },
        {
          "name": "prFloat",
          "type": "uint256"
        },
        {
          "name": "total",
          "type": "uint256"
        },
        {
          "name": "totFloat",
          "type": "uint256"
        },
        {
          "name": "quantity",
          "type": "uint256"
        },
        {
          "name": "email",
          "type": "string"
        }
      ],
      "name": "buyProduct",
      "outputs": [],
      "payable": false,
      "stateMutability": "nonpayable",
      "type": "function",
      "signature": "0xf5f75cf5"
    },
    {
      "constant": false,
      "inputs": [
        {
          "name": "id",
          "type": "uint256[]"
        }
      ],
      "name": "finalisePurchases",
      "outputs": [],
      "payable": false,
      "stateMutability": "nonpayable",
      "type": "function",
      "signature": "0x67654147"
    },
    {
      "constant": false,
      "inputs": [
        {
          "name": "email",
          "type": "string"
        },
        {
          "name": "psWord",
          "type": "string"
        }
      ],
      "name": "createAccount",
      "outputs": [],
      "payable": false,
      "stateMutability": "nonpayable",
      "type": "function",
      "signature": "0x19289287"
    },
    {
      "constant": false,
      "inputs": [
        {
          "name": "id",
          "type": "uint256"
        }
      ],
      "name": "delAccount",
      "outputs": [],
      "payable": false,
      "stateMutability": "nonpayable",
      "type": "function",
      "signature": "0x8241e39d"
    },
    {
      "constant": false,
      "inputs": [
        {
          "name": "id",
          "type": "uint256"
        }
      ],
      "name": "setMerchant",
      "outputs": [],
      "payable": false,
      "stateMutability": "nonpayable",
      "type": "function",
      "signature": "0xaf9b1df0"
    }
  ],
  "bytecode": "0x608060405260008055600060025534801561001957600080fd5b50611382806100296000396000f3fe608060405260043610610099576000357c0100000000000000000000000000000000000000000000000000000000900463ffffffff168063192892871461009e57806367654147146101fd5780638241e39d146102c25780638392fe31146102fd578063af9b1df014610452578063b8e81da51461048d578063f2a40db8146104b8578063f5f75cf5146105e3578063fae7f7331461077f575b600080fd5b3480156100aa57600080fd5b506101fb600480360360408110156100c157600080fd5b81019080803590602001906401000000008111156100de57600080fd5b8201836020820111156100f057600080fd5b8035906020019184600183028401116401000000008311171561011257600080fd5b91908080601f016020809104026020016040519081016040528093929190818152602001838380828437600081840152601f19601f8201169050808301925050505050505091929192908035906020019064010000000081111561017557600080fd5b82018360208201111561018757600080fd5b803590602001918460018302840111640100000000831117156101a957600080fd5b91908080601f016020809104026020016040519081016040528093929190818152602001838380828437600081840152601f19601f8201169050808301925050505050505091929192905050506107aa565b005b34801561020957600080fd5b506102c06004803603602081101561022057600080fd5b810190808035906020019064010000000081111561023d57600080fd5b82018360208201111561024f57600080fd5b8035906020019184602083028401116401000000008311171561027157600080fd5b919080806020026020016040519081016040528093929190818152602001838360200280828437600081840152601f19601f82011690508083019250505050505050919291929050505061084a565b005b3480156102ce57600080fd5b506102fb600480360360208110156102e557600080fd5b8101908080359060200190929190505050610b13565b005b34801561030957600080fd5b506103366004803603602081101561032057600080fd5b8101908080359060200190929190505050610ba9565b604051808a815260200180602001898152602001888152602001878152602001868152602001858152602001806020018415151515815260200183810383528b818151815260200191508051906020019080838360005b838110156103a857808201518184015260208101905061038d565b50505050905090810190601f1680156103d55780820380516001836020036101000a031916815260200191505b50838103825285818151815260200191508051906020019080838360005b8381101561040e5780820151818401526020810190506103f3565b50505050905090810190601f16801561043b5780820380516001836020036101000a031916815260200191505b509b50505050505050505050505060405180910390f35b34801561045e57600080fd5b5061048b6004803603602081101561047557600080fd5b8101908080359060200190929190505050610d34565b005b34801561049957600080fd5b506104a2610f42565b6040518082815260200191505060405180910390f35b3480156104c457600080fd5b506104f1600480360360208110156104db57600080fd5b8101908080359060200190929190505050610f48565b60405180806020018060200184151515158152602001838103835286818151815260200191508051906020019080838360005b8381101561053f578082015181840152602081019050610524565b50505050905090810190601f16801561056c5780820380516001836020036101000a031916815260200191505b50838103825285818151815260200191508051906020019080838360005b838110156105a557808201518184015260208101905061058a565b50505050905090810190601f1680156105d25780820380516001836020036101000a031916815260200191505b509550505050505060405180910390f35b3480156105ef57600080fd5b5061077d600480360361010081101561060757600080fd5b81019080803590602001909291908035906020019064010000000081111561062e57600080fd5b82018360208201111561064057600080fd5b8035906020019184600183028401116401000000008311171561066257600080fd5b91908080601f016020809104026020016040519081016040528093929190818152602001838380828437600081840152601f19601f8201169050808301925050505050505091929192908035906020019092919080359060200190929190803590602001909291908035906020019092919080359060200190929190803590602001906401000000008111156106f757600080fd5b82018360208201111561070957600080fd5b8035906020019184600183028401116401000000008311171561072b57600080fd5b91908080601f016020809104026020016040519081016040528093929190818152602001838380828437600081840152601f19601f8201169050808301925050505050505091929192905050506110af565b005b34801561078b57600080fd5b506107946111b8565b6040518082815260200191505060405180910390f35b60606040519081016040528083815260200182815260200160001515815250600160008060008154600101919050819055815260200190815260200160002060008201518160000190805190602001906108059291906111be565b5060208201518160010190805190602001906108229291906111be565b5060408201518160020160006101000a81548160ff0219169083151502179055509050505050565b60008151905060008090505b81811015610b0e576000838281518110151561086e57fe5b90602001906020020151905061088261123e565b60036000838152602001908152602001600020610120604051908101604052908160008201548152602001600182018054600181600116156101000203166002900480601f0160208091040260200160405190810160405280929190818152602001828054600181600116156101000203166002900480156109455780601f1061091a57610100808354040283529160200191610945565b820191906000526020600020905b81548152906001019060200180831161092857829003601f168201915b505050505081526020016002820154815260200160038201548152602001600482015481526020016005820154815260200160068201548152602001600782018054600181600116156101000203166002900480601f016020809104026020016040519081016040528092919081815260200182805460018160011615610100020316600290048015610a195780601f106109ee57610100808354040283529160200191610a19565b820191906000526020600020905b8154815290600101906020018083116109fc57829003601f168201915b505050505081526020016008820160009054906101000a900460ff16151515158152505090506001816101000190151590811515815250508060036000848152602001908152602001600020600082015181600001556020820151816001019080519060200190610a8b9291906111be565b5060408201518160020155606082015181600301556080820151816004015560a0820151816005015560c0820151816006015560e0820151816007019080519060200190610ada9291906111be565b506101008201518160080160006101000a81548160ff02191690831515021790555090505050508080600101915050610856565b505050565b600054811415610b30576000808154809291906001900391905055505b6020604051908101604052806000815250600160008381526020019081526020016000206000019080519060200190610b6a92919061128d565b506020604051908101604052806000815250600160008381526020019081526020016000206001019080519060200190610ba592919061128d565b5050565b6003602052806000526040600020600091509050806000015490806001018054600181600116156101000203166002900480601f016020809104026020016040519081016040528092919081815260200182805460018160011615610100020316600290048015610c5b5780601f10610c3057610100808354040283529160200191610c5b565b820191906000526020600020905b815481529060010190602001808311610c3e57829003601f168201915b505050505090806002015490806003015490806004015490806005015490806006015490806007018054600181600116156101000203166002900480601f016020809104026020016040519081016040528092919081815260200182805460018160011615610100020316600290048015610d175780601f10610cec57610100808354040283529160200191610d17565b820191906000526020600020905b815481529060010190602001808311610cfa57829003601f168201915b5050505050908060080160009054906101000a900460ff16905089565b610d3c61130d565b6001600083815260200190815260200160002060606040519081016040529081600082018054600181600116156101000203166002900480601f016020809104026020016040519081016040528092919081815260200182805460018160011615610100020316600290048015610df45780601f10610dc957610100808354040283529160200191610df4565b820191906000526020600020905b815481529060010190602001808311610dd757829003601f168201915b50505050508152602001600182018054600181600116156101000203166002900480601f016020809104026020016040519081016040528092919081815260200182805460018160011615610100020316600290048015610e965780601f10610e6b57610100808354040283529160200191610e96565b820191906000526020600020905b815481529060010190602001808311610e7957829003601f168201915b505050505081526020016002820160009054906101000a900460ff1615151515815250509050600181604001901515908115158152505080600160008481526020019081526020016000206000820151816000019080519060200190610efd9291906111be565b506020820151816001019080519060200190610f1a9291906111be565b5060408201518160020160006101000a81548160ff0219169083151502179055509050505050565b60005481565b6001602052806000526040600020600091509050806000018054600181600116156101000203166002900480601f016020809104026020016040519081016040528092919081815260200182805460018160011615610100020316600290048015610ff45780601f10610fc957610100808354040283529160200191610ff4565b820191906000526020600020905b815481529060010190602001808311610fd757829003601f168201915b505050505090806001018054600181600116156101000203166002900480601f0160208091040260200160405190810160405280929190818152602001828054600181600116156101000203166002900480156110925780601f1061106757610100808354040283529160200191611092565b820191906000526020600020905b81548152906001019060200180831161107557829003601f168201915b5050505050908060020160009054906101000a900460ff16905083565b610120604051908101604052808981526020018881526020018781526020018681526020018381526020018581526020018481526020018281526020016000151581525060036000600260008154600101919050819055815260200190815260200160002060008201518160000155602082015181600101908051906020019061113a9291906111be565b5060408201518160020155606082015181600301556080820151816004015560a0820151816005015560c0820151816006015560e08201518160070190805190602001906111899291906111be565b506101008201518160080160006101000a81548160ff0219169083151502179055509050505050505050505050565b60025481565b828054600181600116156101000203166002900490600052602060002090601f016020900481019282601f106111ff57805160ff191683800117855561122d565b8280016001018555821561122d579182015b8281111561122c578251825591602001919060010190611211565b5b50905061123a9190611331565b5090565b6101206040519081016040528060008152602001606081526020016000815260200160008152602001600081526020016000815260200160008152602001606081526020016000151581525090565b828054600181600116156101000203166002900490600052602060002090601f016020900481019282601f106112ce57805160ff19168380011785556112fc565b828001600101855582156112fc579182015b828111156112fb5782518255916020019190600101906112e0565b5b5090506113099190611331565b5090565b60606040519081016040528060608152602001606081526020016000151581525090565b61135391905b8082111561134f576000816000905550600101611337565b5090565b9056fea165627a7a723058200b751404a90b27e602ef2ac7faf44aa4217e00c20445857e9999e137f730a16e0029",
  "source": "// SPDX-License-Identifier: MIT\npragma solidity >=0.4.22 <0.9.0;\n\ncontract Accounts {\n    uint256 public acCount = 0;\n\n    struct Account {\n        string email;\n        string psWord;\n        bool isMerchant;\n    }\n\n    mapping(uint256 => Account) public accounts;\n\n    // purchases will hold things that are either in the cart or in the purchase history\n    uint256 public purchCount = 0;\n\n    struct Purchase {\n        uint256 prodId;\n        string prodName;\n        uint256 price;\n        uint256 prFloat;\n        uint256 quantity;\n        uint256 total;\n        uint256 totFloat;\n        string email;\n        bool isPaid; // If true this product will be displayed in the purchase history, if not it will be in the cart\n    }\n\n    mapping(uint256 => Purchase) public purchases;\n\n    function buyProduct(\n        uint256 id,\n        string memory name,\n        uint256 price,\n        uint256 prFloat,\n        uint256 total,\n        uint256 totFloat,\n        uint256 quantity,\n        string memory email\n    ) public {\n        purchases[++purchCount] = Purchase(\n            id,\n            name,\n            price,\n            prFloat,\n            quantity,\n            total,\n            totFloat,\n            email,\n            false\n        );\n    }\n\n    function finalisePurchases(uint256[] memory id) public {\n        uint256 count = id.length;\n        for (uint256 i = 0; i < count; i++) {\n            uint256 index = id[i];\n            Purchase memory _temp = purchases[index];\n            _temp.isPaid = true;\n            purchases[index] = _temp;\n        }\n    }\n\n    function createAccount(string memory email, string memory psWord) public {\n        accounts[++acCount] = Account(email, psWord, false);\n    }\n\n    function delAccount(uint256 id) public {\n        if (id == acCount) {\n            acCount--;\n        }\n\n        accounts[id].email = \"\";\n        accounts[id].psWord = \"\";\n    }\n\n    function setMerchant(uint256 id) public {\n        Account memory tempAccount = accounts[id];\n        tempAccount.isMerchant = true;\n        accounts[id] = tempAccount;\n    }\n}\n",
  "sourcePath": "/home/a_rahim/KDU/FYP Project/finalapp/src/Truffle - Backend/contracts/Accounts.sol",
  "compiler": {
    "name": "solc",
    "version": "0.5.0+commit.1d4f565a.Emscripten.clang"
  },
  "schemaVersion": "3.0.1",
  "updatedAt": "2022-10-19T15:24:23.861Z",
  "devdoc": {
    "methods": {}
  },
  "userdoc": {
    "methods": {}
  }
}