{
  "contractName": "Accounts",
  "abi": [
    {
      "constant": true,
      "inputs": [
        {
          "name": "",
          "type": "uint256"
        }
      ],
      "name": "purchases",
      "outputs": [
        {
          "name": "prodName",
          "type": "string"
        },
        {
          "name": "price",
          "type": "uint256"
        },
        {
          "name": "quantity",
          "type": "uint256"
        },
        {
          "name": "total",
          "type": "uint256"
        },
        {
          "name": "email",
          "type": "string"
        },
        {
          "name": "isPaid",
          "type": "bool"
        }
      ],
      "payable": false,
      "stateMutability": "view",
      "type": "function",
      "signature": "0x8392fe31"
    },
    {
      "constant": true,
      "inputs": [],
      "name": "acCount",
      "outputs": [
        {
          "name": "",
          "type": "uint256"
        }
      ],
      "payable": false,
      "stateMutability": "view",
      "type": "function",
      "signature": "0xb8e81da5"
    },
    {
      "constant": true,
      "inputs": [
        {
          "name": "",
          "type": "uint256"
        }
      ],
      "name": "accounts",
      "outputs": [
        {
          "name": "email",
          "type": "string"
        },
        {
          "name": "psWord",
          "type": "string"
        },
        {
          "name": "isMerchant",
          "type": "bool"
        }
      ],
      "payable": false,
      "stateMutability": "view",
      "type": "function",
      "signature": "0xf2a40db8"
    },
    {
      "constant": true,
      "inputs": [],
      "name": "purchCount",
      "outputs": [
        {
          "name": "",
          "type": "uint256"
        }
      ],
      "payable": false,
      "stateMutability": "view",
      "type": "function",
      "signature": "0xfae7f733"
    },
    {
      "constant": false,
      "inputs": [
        {
          "name": "name",
          "type": "string"
        },
        {
          "name": "price",
          "type": "uint256"
        },
        {
          "name": "quantity",
          "type": "uint256"
        },
        {
          "name": "email",
          "type": "string"
        }
      ],
      "name": "buyProduct",
      "outputs": [],
      "payable": false,
      "stateMutability": "nonpayable",
      "type": "function",
      "signature": "0x921c4cd8"
    },
    {
      "constant": false,
      "inputs": [
        {
          "name": "id",
          "type": "uint256[]"
        }
      ],
      "name": "finalisePurchases",
      "outputs": [],
      "payable": false,
      "stateMutability": "nonpayable",
      "type": "function",
      "signature": "0x67654147"
    },
    {
      "constant": false,
      "inputs": [
        {
          "name": "email",
          "type": "string"
        },
        {
          "name": "psWord",
          "type": "string"
        }
      ],
      "name": "createAccount",
      "outputs": [],
      "payable": false,
      "stateMutability": "nonpayable",
      "type": "function",
      "signature": "0x19289287"
    },
    {
      "constant": false,
      "inputs": [
        {
          "name": "id",
          "type": "uint256"
        }
      ],
      "name": "delAccount",
      "outputs": [],
      "payable": false,
      "stateMutability": "nonpayable",
      "type": "function",
      "signature": "0x8241e39d"
    },
    {
      "constant": false,
      "inputs": [
        {
          "name": "id",
          "type": "uint256"
        }
      ],
      "name": "setMerchant",
      "outputs": [],
      "payable": false,
      "stateMutability": "nonpayable",
      "type": "function",
      "signature": "0xaf9b1df0"
    }
  ],
  "bytecode": "0x608060405260008055600060025534801561001957600080fd5b506112a9806100296000396000f3fe608060405260043610610099576000357c0100000000000000000000000000000000000000000000000000000000900463ffffffff168063192892871461009e57806367654147146101fd5780638241e39d146102c25780638392fe31146102fd578063921c4cd81461043d578063af9b1df0146105b0578063b8e81da5146105eb578063f2a40db814610616578063fae7f73314610741575b600080fd5b3480156100aa57600080fd5b506101fb600480360360408110156100c157600080fd5b81019080803590602001906401000000008111156100de57600080fd5b8201836020820111156100f057600080fd5b8035906020019184600183028401116401000000008311171561011257600080fd5b91908080601f016020809104026020016040519081016040528093929190818152602001838380828437600081840152601f19601f8201169050808301925050505050505091929192908035906020019064010000000081111561017557600080fd5b82018360208201111561018757600080fd5b803590602001918460018302840111640100000000831117156101a957600080fd5b91908080601f016020809104026020016040519081016040528093929190818152602001838380828437600081840152601f19601f82011690508083019250505050505050919291929050505061076c565b005b34801561020957600080fd5b506102c06004803603602081101561022057600080fd5b810190808035906020019064010000000081111561023d57600080fd5b82018360208201111561024f57600080fd5b8035906020019184602083028401116401000000008311171561027157600080fd5b919080806020026020016040519081016040528093929190818152602001838360200280828437600081840152601f19601f82011690508083019250505050505050919291929050505061080c565b005b3480156102ce57600080fd5b506102fb600480360360208110156102e557600080fd5b8101908080359060200190929190505050610a96565b005b34801561030957600080fd5b506103366004803603602081101561032057600080fd5b8101908080359060200190929190505050610b2c565b60405180806020018781526020018681526020018581526020018060200184151515158152602001838103835289818151815260200191508051906020019080838360005b8381101561039657808201518184015260208101905061037b565b50505050905090810190601f1680156103c35780820380516001836020036101000a031916815260200191505b50838103825285818151815260200191508051906020019080838360005b838110156103fc5780820151818401526020810190506103e1565b50505050905090810190601f1680156104295780820380516001836020036101000a031916815260200191505b509850505050505050505060405180910390f35b34801561044957600080fd5b506105ae6004803603608081101561046057600080fd5b810190808035906020019064010000000081111561047d57600080fd5b82018360208201111561048f57600080fd5b803590602001918460018302840111640100000000831117156104b157600080fd5b91908080601f016020809104026020016040519081016040528093929190818152602001838380828437600081840152601f19601f82011690508083019250505050505050919291929080359060200190929190803590602001909291908035906020019064010000000081111561052857600080fd5b82018360208201111561053a57600080fd5b8035906020019184600183028401116401000000008311171561055c57600080fd5b91908080601f016020809104026020016040519081016040528093929190818152602001838380828437600081840152601f19601f820116905080830192505050505050509192919290505050610ca5565b005b3480156105bc57600080fd5b506105e9600480360360208110156105d357600080fd5b8101908080359060200190929190505050610d7a565b005b3480156105f757600080fd5b50610600610f88565b6040518082815260200191505060405180910390f35b34801561062257600080fd5b5061064f6004803603602081101561063957600080fd5b8101908080359060200190929190505050610f8e565b60405180806020018060200184151515158152602001838103835286818151815260200191508051906020019080838360005b8381101561069d578082015181840152602081019050610682565b50505050905090810190601f1680156106ca5780820380516001836020036101000a031916815260200191505b50838103825285818151815260200191508051906020019080838360005b838110156107035780820151818401526020810190506106e8565b50505050905090810190601f1680156107305780820380516001836020036101000a031916815260200191505b509550505050505060405180910390f35b34801561074d57600080fd5b506107566110f5565b6040518082815260200191505060405180910390f35b60606040519081016040528083815260200182815260200160001515815250600160008060008154600101919050819055815260200190815260200160002060008201518160000190805190602001906107c79291906110fb565b5060208201518160010190805190602001906107e49291906110fb565b5060408201518160020160006101000a81548160ff0219169083151502179055509050505050565b60008151905060008090505b81811015610a91576000838281518110151561083057fe5b90602001906020020151905061084461117b565b6003600083815260200190815260200160002060c06040519081016040529081600082018054600181600116156101000203166002900480601f0160208091040260200160405190810160405280929190818152602001828054600181600116156101000203166002900480156108fc5780601f106108d1576101008083540402835291602001916108fc565b820191906000526020600020905b8154815290600101906020018083116108df57829003601f168201915b50505050508152602001600182015481526020016002820154815260200160038201548152602001600482018054600181600116156101000203166002900480601f0160208091040260200160405190810160405280929190818152602001828054600181600116156101000203166002900480156109bc5780601f10610991576101008083540402835291602001916109bc565b820191906000526020600020905b81548152906001019060200180831161099f57829003601f168201915b505050505081526020016005820160009054906101000a900460ff161515151581525050905060018160a001901515908115158152505080600360008481526020019081526020016000206000820151816000019080519060200190610a239291906110fb565b506020820151816001015560408201518160020155606082015181600301556080820151816004019080519060200190610a5e9291906110fb565b5060a08201518160050160006101000a81548160ff02191690831515021790555090505050508080600101915050610818565b505050565b600054811415610ab3576000808154809291906001900391905055505b6020604051908101604052806000815250600160008381526020019081526020016000206000019080519060200190610aed9291906111b4565b506020604051908101604052806000815250600160008381526020019081526020016000206001019080519060200190610b289291906111b4565b5050565b6003602052806000526040600020600091509050806000018054600181600116156101000203166002900480601f016020809104026020016040519081016040528092919081815260200182805460018160011615610100020316600290048015610bd85780601f10610bad57610100808354040283529160200191610bd8565b820191906000526020600020905b815481529060010190602001808311610bbb57829003601f168201915b505050505090806001015490806002015490806003015490806004018054600181600116156101000203166002900480601f016020809104026020016040519081016040528092919081815260200182805460018160011615610100020316600290048015610c885780601f10610c5d57610100808354040283529160200191610c88565b820191906000526020600020905b815481529060010190602001808311610c6b57829003601f168201915b5050505050908060050160009054906101000a900460ff16905086565b60c0604051908101604052808581526020018481526020018381526020018385028152602001828152602001600015158152506003600060026000815460010191905081905581526020019081526020016000206000820151816000019080519060200190610d159291906110fb565b506020820151816001015560408201518160020155606082015181600301556080820151816004019080519060200190610d509291906110fb565b5060a08201518160050160006101000a81548160ff02191690831515021790555090505050505050565b610d82611234565b6001600083815260200190815260200160002060606040519081016040529081600082018054600181600116156101000203166002900480601f016020809104026020016040519081016040528092919081815260200182805460018160011615610100020316600290048015610e3a5780601f10610e0f57610100808354040283529160200191610e3a565b820191906000526020600020905b815481529060010190602001808311610e1d57829003601f168201915b50505050508152602001600182018054600181600116156101000203166002900480601f016020809104026020016040519081016040528092919081815260200182805460018160011615610100020316600290048015610edc5780601f10610eb157610100808354040283529160200191610edc565b820191906000526020600020905b815481529060010190602001808311610ebf57829003601f168201915b505050505081526020016002820160009054906101000a900460ff1615151515815250509050600181604001901515908115158152505080600160008481526020019081526020016000206000820151816000019080519060200190610f439291906110fb565b506020820151816001019080519060200190610f609291906110fb565b5060408201518160020160006101000a81548160ff0219169083151502179055509050505050565b60005481565b6001602052806000526040600020600091509050806000018054600181600116156101000203166002900480601f01602080910402602001604051908101604052809291908181526020018280546001816001161561010002031660029004801561103a5780601f1061100f5761010080835404028352916020019161103a565b820191906000526020600020905b81548152906001019060200180831161101d57829003601f168201915b505050505090806001018054600181600116156101000203166002900480601f0160208091040260200160405190810160405280929190818152602001828054600181600116156101000203166002900480156110d85780601f106110ad576101008083540402835291602001916110d8565b820191906000526020600020905b8154815290600101906020018083116110bb57829003601f168201915b5050505050908060020160009054906101000a900460ff16905083565b60025481565b828054600181600116156101000203166002900490600052602060002090601f016020900481019282601f1061113c57805160ff191683800117855561116a565b8280016001018555821561116a579182015b8281111561116957825182559160200191906001019061114e565b5b5090506111779190611258565b5090565b60c06040519081016040528060608152602001600081526020016000815260200160008152602001606081526020016000151581525090565b828054600181600116156101000203166002900490600052602060002090601f016020900481019282601f106111f557805160ff1916838001178555611223565b82800160010185558215611223579182015b82811115611222578251825591602001919060010190611207565b5b5090506112309190611258565b5090565b60606040519081016040528060608152602001606081526020016000151581525090565b61127a91905b8082111561127657600081600090555060010161125e565b5090565b9056fea165627a7a7230582029c96490f4efe14327f7c6453596ed144ef2cae17df56fa9e40047222537d85c0029",
  "source": "// SPDX-License-Identifier: MIT\npragma solidity >=0.4.22 <0.9.0;\n\ncontract Accounts {\n    uint256 public acCount = 0;\n\n    struct Account {\n        string email;\n        string psWord;\n        bool isMerchant;\n    }\n\n    mapping(uint256 => Account) public accounts;\n\n    // purchases will hold things that are either in the cart or in the purchase history\n    uint256 public purchCount = 0;\n\n    struct Purchase {\n        string prodName;\n        uint256 price;\n        uint256 quantity;\n        uint256 total;\n        string email;\n        bool isPaid; // If true this product will be displayed in the purchase history, if not it will be in the cart\n    }\n\n    mapping(uint256 => Purchase) public purchases;\n\n    function buyProduct(\n        string memory name,\n        uint256 price,\n        uint256 quantity,\n        string memory email\n    ) public {\n        purchases[++purchCount] = Purchase(\n            name,\n            price,\n            quantity,\n            price * quantity,\n            email,\n            false\n        );\n    }\n\n    function finalisePurchases(uint256[] memory id) public {\n        uint256 count = id.length;\n        for (uint256 i = 0; i < count; i++) {\n            uint256 index = id[i];\n            Purchase memory _temp = purchases[index];\n            _temp.isPaid = true;\n            purchases[index] = _temp;\n        }\n    }\n\n    function createAccount(string memory email, string memory psWord) public {\n        accounts[++acCount] = Account(email, psWord, false);\n    }\n\n    function delAccount(uint256 id) public {\n        if (id == acCount) {\n            acCount--;\n        }\n\n        accounts[id].email = \"\";\n        accounts[id].psWord = \"\";\n    }\n\n    function setMerchant(uint256 id) public {\n        Account memory tempAccount = accounts[id];\n        tempAccount.isMerchant = true;\n        accounts[id] = tempAccount;\n    }\n}\n",
  "sourcePath": "/home/a_rahim/KDU/FYP Project/finalapp/src/Truffle - Backend/contracts/Accounts.sol",
  "compiler": {
    "name": "solc",
    "version": "0.5.0+commit.1d4f565a.Emscripten.clang"
  },
  "schemaVersion": "3.0.1",
  "updatedAt": "2022-10-17T14:56:40.815Z",
  "devdoc": {
    "methods": {}
  },
  "userdoc": {
    "methods": {}
  }
}