{
  "contractName": "Merchant",
  "abi": [
    {
      "constant": true,
      "inputs": [],
      "name": "prodCount",
      "outputs": [
        {
          "name": "",
          "type": "uint256"
        }
      ],
      "payable": false,
      "stateMutability": "view",
      "type": "function",
      "signature": "0x017e19a3"
    },
    {
      "constant": true,
      "inputs": [
        {
          "name": "",
          "type": "uint256"
        }
      ],
      "name": "products",
      "outputs": [
        {
          "name": "prodName",
          "type": "string"
        },
        {
          "name": "category",
          "type": "string"
        },
        {
          "name": "price",
          "type": "uint256"
        },
        {
          "name": "prFloat",
          "type": "uint256"
        },
        {
          "name": "stock",
          "type": "uint256"
        },
        {
          "name": "desc",
          "type": "string"
        },
        {
          "name": "storeName",
          "type": "string"
        }
      ],
      "payable": false,
      "stateMutability": "view",
      "type": "function",
      "signature": "0x7acc0b20"
    },
    {
      "constant": true,
      "inputs": [],
      "name": "storecount",
      "outputs": [
        {
          "name": "",
          "type": "uint256"
        }
      ],
      "payable": false,
      "stateMutability": "view",
      "type": "function",
      "signature": "0x9356396b"
    },
    {
      "constant": true,
      "inputs": [
        {
          "name": "",
          "type": "uint256"
        }
      ],
      "name": "Stores",
      "outputs": [
        {
          "name": "name",
          "type": "string"
        },
        {
          "name": "location",
          "type": "string"
        },
        {
          "name": "account",
          "type": "string"
        }
      ],
      "payable": false,
      "stateMutability": "view",
      "type": "function",
      "signature": "0xdb464c8c"
    },
    {
      "constant": true,
      "inputs": [
        {
          "name": "",
          "type": "uint256"
        }
      ],
      "name": "reviews",
      "outputs": [
        {
          "name": "prodId",
          "type": "uint256"
        },
        {
          "name": "text",
          "type": "string"
        },
        {
          "name": "reviewee",
          "type": "string"
        }
      ],
      "payable": false,
      "stateMutability": "view",
      "type": "function",
      "signature": "0xe83ddcea"
    },
    {
      "constant": true,
      "inputs": [],
      "name": "reviewCount",
      "outputs": [
        {
          "name": "",
          "type": "uint256"
        }
      ],
      "payable": false,
      "stateMutability": "view",
      "type": "function",
      "signature": "0xeff5924f"
    },
    {
      "constant": false,
      "inputs": [
        {
          "name": "email",
          "type": "string"
        },
        {
          "name": "storeName",
          "type": "string"
        },
        {
          "name": "location",
          "type": "string"
        }
      ],
      "name": "createStore",
      "outputs": [],
      "payable": false,
      "stateMutability": "nonpayable",
      "type": "function",
      "signature": "0x306368d2"
    },
    {
      "constant": false,
      "inputs": [
        {
          "name": "id",
          "type": "uint256"
        },
        {
          "name": "storeName",
          "type": "string"
        },
        {
          "name": "location",
          "type": "string"
        }
      ],
      "name": "editStore",
      "outputs": [],
      "payable": false,
      "stateMutability": "nonpayable",
      "type": "function",
      "signature": "0xeae20011"
    },
    {
      "constant": false,
      "inputs": [
        {
          "name": "name",
          "type": "string"
        },
        {
          "name": "prodCat",
          "type": "string"
        },
        {
          "name": "price",
          "type": "uint256"
        },
        {
          "name": "float",
          "type": "uint256"
        },
        {
          "name": "initStock",
          "type": "uint256"
        },
        {
          "name": "description",
          "type": "string"
        },
        {
          "name": "storeName",
          "type": "string"
        }
      ],
      "name": "addProduct",
      "outputs": [],
      "payable": false,
      "stateMutability": "nonpayable",
      "type": "function",
      "signature": "0x806e7982"
    },
    {
      "constant": false,
      "inputs": [
        {
          "name": "id",
          "type": "uint256"
        }
      ],
      "name": "delProduct",
      "outputs": [],
      "payable": false,
      "stateMutability": "nonpayable",
      "type": "function",
      "signature": "0x71d7bcf8"
    },
    {
      "constant": false,
      "inputs": [
        {
          "name": "id",
          "type": "uint256"
        },
        {
          "name": "newStock",
          "type": "uint256"
        }
      ],
      "name": "setStock",
      "outputs": [],
      "payable": false,
      "stateMutability": "nonpayable",
      "type": "function",
      "signature": "0xeb655591"
    },
    {
      "constant": false,
      "inputs": [
        {
          "name": "id",
          "type": "uint256"
        },
        {
          "name": "text",
          "type": "string"
        },
        {
          "name": "email",
          "type": "string"
        }
      ],
      "name": "addReview",
      "outputs": [],
      "payable": false,
      "stateMutability": "nonpayable",
      "type": "function",
      "signature": "0xfe2e9d9d"
    }
  ],
  "bytecode": "0x6080604052600080556000600255600060045534801561001e57600080fd5b50611b9f8061002e6000396000f3fe6080604052600436106100ba576000357c0100000000000000000000000000000000000000000000000000000000900463ffffffff168063017e19a3146100bf578063306368d2146100ea57806371d7bcf8146102e05780637acc0b201461031b578063806e7982146105285780639356396b146107d3578063db464c8c146107fe578063e83ddcea1461098a578063eae2001114610ab1578063eb65559114610c1a578063eff5924f14610c5f578063fe2e9d9d14610c8a575b600080fd5b3480156100cb57600080fd5b506100d4610df3565b6040518082815260200191505060405180910390f35b3480156100f657600080fd5b506102de6004803603606081101561010d57600080fd5b810190808035906020019064010000000081111561012a57600080fd5b82018360208201111561013c57600080fd5b8035906020019184600183028401116401000000008311171561015e57600080fd5b91908080601f016020809104026020016040519081016040528093929190818152602001838380828437600081840152601f19601f820116905080830192505050505050509192919290803590602001906401000000008111156101c157600080fd5b8201836020820111156101d357600080fd5b803590602001918460018302840111640100000000831117156101f557600080fd5b91908080601f016020809104026020016040519081016040528093929190818152602001838380828437600081840152601f19601f8201169050808301925050505050505091929192908035906020019064010000000081111561025857600080fd5b82018360208201111561026a57600080fd5b8035906020019184600183028401116401000000008311171561028c57600080fd5b91908080601f016020809104026020016040519081016040528093929190818152602001838380828437600081840152601f19601f820116905080830192505050505050509192919290505050610df9565b005b3480156102ec57600080fd5b506103196004803603602081101561030357600080fd5b8101908080359060200190929190505050610e94565b005b34801561032757600080fd5b506103546004803603602081101561033e57600080fd5b8101908080359060200190929190505050610ff5565b604051808060200180602001888152602001878152602001868152602001806020018060200185810385528c818151815260200191508051906020019080838360005b838110156103b2578082015181840152602081019050610397565b50505050905090810190601f1680156103df5780820380516001836020036101000a031916815260200191505b5085810384528b818151815260200191508051906020019080838360005b838110156104185780820151818401526020810190506103fd565b50505050905090810190601f1680156104455780820380516001836020036101000a031916815260200191505b50858103835287818151815260200191508051906020019080838360005b8381101561047e578082015181840152602081019050610463565b50505050905090810190601f1680156104ab5780820380516001836020036101000a031916815260200191505b50858103825286818151815260200191508051906020019080838360005b838110156104e45780820151818401526020810190506104c9565b50505050905090810190601f1680156105115780820380516001836020036101000a031916815260200191505b509b50505050505050505050505060405180910390f35b34801561053457600080fd5b506107d1600480360360e081101561054b57600080fd5b810190808035906020019064010000000081111561056857600080fd5b82018360208201111561057a57600080fd5b8035906020019184600183028401116401000000008311171561059c57600080fd5b91908080601f016020809104026020016040519081016040528093929190818152602001838380828437600081840152601f19601f820116905080830192505050505050509192919290803590602001906401000000008111156105ff57600080fd5b82018360208201111561061157600080fd5b8035906020019184600183028401116401000000008311171561063357600080fd5b91908080601f016020809104026020016040519081016040528093929190818152602001838380828437600081840152601f19601f820116905080830192505050505050509192919290803590602001909291908035906020019092919080359060200190929190803590602001906401000000008111156106b457600080fd5b8201836020820111156106c657600080fd5b803590602001918460018302840111640100000000831117156106e857600080fd5b91908080601f016020809104026020016040519081016040528093929190818152602001838380828437600081840152601f19601f8201169050808301925050505050505091929192908035906020019064010000000081111561074b57600080fd5b82018360208201111561075d57600080fd5b8035906020019184600183028401116401000000008311171561077f57600080fd5b91908080601f016020809104026020016040519081016040528093929190818152602001838380828437600081840152601f19601f820116905080830192505050505050509192919290505050611297565b005b3480156107df57600080fd5b506107e861138a565b6040518082815260200191505060405180910390f35b34801561080a57600080fd5b506108376004803603602081101561082157600080fd5b8101908080359060200190929190505050611390565b60405180806020018060200180602001848103845287818151815260200191508051906020019080838360005b8381101561087f578082015181840152602081019050610864565b50505050905090810190601f1680156108ac5780820380516001836020036101000a031916815260200191505b50848103835286818151815260200191508051906020019080838360005b838110156108e55780820151818401526020810190506108ca565b50505050905090810190601f1680156109125780820380516001836020036101000a031916815260200191505b50848103825285818151815260200191508051906020019080838360005b8381101561094b578082015181840152602081019050610930565b50505050905090810190601f1680156109785780820380516001836020036101000a031916815260200191505b50965050505050505060405180910390f35b34801561099657600080fd5b506109c3600480360360208110156109ad57600080fd5b8101908080359060200190929190505050611582565b604051808481526020018060200180602001838103835285818151815260200191508051906020019080838360005b83811015610a0d5780820151818401526020810190506109f2565b50505050905090810190601f168015610a3a5780820380516001836020036101000a031916815260200191505b50838103825284818151815260200191508051906020019080838360005b83811015610a73578082015181840152602081019050610a58565b50505050905090810190601f168015610aa05780820380516001836020036101000a031916815260200191505b509550505050505060405180910390f35b348015610abd57600080fd5b50610c1860048036036060811015610ad457600080fd5b810190808035906020019092919080359060200190640100000000811115610afb57600080fd5b820183602082011115610b0d57600080fd5b80359060200191846001830284011164010000000083111715610b2f57600080fd5b91908080601f016020809104026020016040519081016040528093929190818152602001838380828437600081840152601f19601f82011690508083019250505050505050919291929080359060200190640100000000811115610b9257600080fd5b820183602082011115610ba457600080fd5b80359060200191846001830284011164010000000083111715610bc657600080fd5b91908080601f016020809104026020016040519081016040528093929190818152602001838380828437600081840152601f19601f8201169050808301925050505050505091929192905050506116dc565b005b348015610c2657600080fd5b50610c5d60048036036040811015610c3d57600080fd5b81019080803590602001909291908035906020019092919050505061197e565b005b348015610c6b57600080fd5b50610c7461199d565b6040518082815260200191505060405180910390f35b348015610c9657600080fd5b50610df160048036036060811015610cad57600080fd5b810190808035906020019092919080359060200190640100000000811115610cd457600080fd5b820183602082011115610ce657600080fd5b80359060200191846001830284011164010000000083111715610d0857600080fd5b91908080601f016020809104026020016040519081016040528093929190818152602001838380828437600081840152601f19601f82011690508083019250505050505050919291929080359060200190640100000000811115610d6b57600080fd5b820183602082011115610d7d57600080fd5b80359060200191846001830284011164010000000083111715610d9f57600080fd5b91908080601f016020809104026020016040519081016040528093929190818152602001838380828437600081840152601f19601f8201169050808301925050505050505091929192905050506119a3565b005b60025481565b6060604051908101604052808381526020018281526020018481525060016000806000815460010191905081905581526020019081526020016000206000820151816000019080519060200190610e51929190611a2c565b506020820151816001019080519060200190610e6e929190611a2c565b506040820151816002019080519060200190610e8b929190611a2c565b50905050505050565b600254811415610eb257600260008154809291906001900391905055505b6020604051908101604052806000815250600360008381526020019081526020016000206000019080519060200190610eec929190611aac565b506020604051908101604052806000815250600360008381526020019081526020016000206001019080519060200190610f27929190611aac565b506000600360008381526020019081526020016000206002018190555060006003600083815260200190815260200160002060030181905550600060036000838152602001908152602001600020600401819055506020604051908101604052806000815250600360008381526020019081526020016000206005019080519060200190610fb6929190611aac565b506020604051908101604052806000815250600360008381526020019081526020016000206006019080519060200190610ff1929190611aac565b5050565b6003602052806000526040600020600091509050806000018054600181600116156101000203166002900480601f0160208091040260200160405190810160405280929190818152602001828054600181600116156101000203166002900480156110a15780601f10611076576101008083540402835291602001916110a1565b820191906000526020600020905b81548152906001019060200180831161108457829003601f168201915b505050505090806001018054600181600116156101000203166002900480601f01602080910402602001604051908101604052809291908181526020018280546001816001161561010002031660029004801561113f5780601f106111145761010080835404028352916020019161113f565b820191906000526020600020905b81548152906001019060200180831161112257829003601f168201915b505050505090806002015490806003015490806004015490806005018054600181600116156101000203166002900480601f0160208091040260200160405190810160405280929190818152602001828054600181600116156101000203166002900480156111ef5780601f106111c4576101008083540402835291602001916111ef565b820191906000526020600020905b8154815290600101906020018083116111d257829003601f168201915b505050505090806006018054600181600116156101000203166002900480601f01602080910402602001604051908101604052809291908181526020018280546001816001161561010002031660029004801561128d5780601f106112625761010080835404028352916020019161128d565b820191906000526020600020905b81548152906001019060200180831161127057829003601f168201915b5050505050905087565b60e060405190810160405280888152602001878152602001868152602001858152602001848152602001838152602001828152506003600060026000815460010191905081905581526020019081526020016000206000820151816000019080519060200190611308929190611a2c565b506020820151816001019080519060200190611325929190611a2c565b5060408201518160020155606082015181600301556080820151816004015560a0820151816005019080519060200190611360929190611a2c565b5060c082015181600601908051906020019061137d929190611a2c565b5090505050505050505050565b60005481565b6001602052806000526040600020600091509050806000018054600181600116156101000203166002900480601f01602080910402602001604051908101604052809291908181526020018280546001816001161561010002031660029004801561143c5780601f106114115761010080835404028352916020019161143c565b820191906000526020600020905b81548152906001019060200180831161141f57829003601f168201915b505050505090806001018054600181600116156101000203166002900480601f0160208091040260200160405190810160405280929190818152602001828054600181600116156101000203166002900480156114da5780601f106114af576101008083540402835291602001916114da565b820191906000526020600020905b8154815290600101906020018083116114bd57829003601f168201915b505050505090806002018054600181600116156101000203166002900480601f0160208091040260200160405190810160405280929190818152602001828054600181600116156101000203166002900480156115785780601f1061154d57610100808354040283529160200191611578565b820191906000526020600020905b81548152906001019060200180831161155b57829003601f168201915b5050505050905083565b6005602052806000526040600020600091509050806000015490806001018054600181600116156101000203166002900480601f0160208091040260200160405190810160405280929190818152602001828054600181600116156101000203166002900480156116345780601f1061160957610100808354040283529160200191611634565b820191906000526020600020905b81548152906001019060200180831161161757829003601f168201915b505050505090806002018054600181600116156101000203166002900480601f0160208091040260200160405190810160405280929190818152602001828054600181600116156101000203166002900480156116d25780601f106116a7576101008083540402835291602001916116d2565b820191906000526020600020905b8154815290600101906020018083116116b557829003601f168201915b5050505050905083565b6116e4611b2c565b6001600085815260200190815260200160002060606040519081016040529081600082018054600181600116156101000203166002900480601f01602080910402602001604051908101604052809291908181526020018280546001816001161561010002031660029004801561179c5780601f106117715761010080835404028352916020019161179c565b820191906000526020600020905b81548152906001019060200180831161177f57829003601f168201915b50505050508152602001600182018054600181600116156101000203166002900480601f01602080910402602001604051908101604052809291908181526020018280546001816001161561010002031660029004801561183e5780601f106118135761010080835404028352916020019161183e565b820191906000526020600020905b81548152906001019060200180831161182157829003601f168201915b50505050508152602001600282018054600181600116156101000203166002900480601f0160208091040260200160405190810160405280929190818152602001828054600181600116156101000203166002900480156118e05780601f106118b5576101008083540402835291602001916118e0565b820191906000526020600020905b8154815290600101906020018083116118c357829003601f168201915b5050505050815250509050606060405190810160405280848152602001838152602001826040015181525060016000868152602001908152602001600020600082015181600001908051906020019061193a929190611a2c565b506020820151816001019080519060200190611957929190611a2c565b506040820151816002019080519060200190611974929190611a2c565b5090505050505050565b8060036000848152602001908152602001600020600401819055505050565b60045481565b60606040519081016040528084815260200183815260200182815250600560006004600081546001019190508190558152602001908152602001600020600082015181600001556020820151816001019080519060200190611a06929190611a2c565b506040820151816002019080519060200190611a23929190611a2c565b50905050505050565b828054600181600116156101000203166002900490600052602060002090601f016020900481019282601f10611a6d57805160ff1916838001178555611a9b565b82800160010185558215611a9b579182015b82811115611a9a578251825591602001919060010190611a7f565b5b509050611aa89190611b4e565b5090565b828054600181600116156101000203166002900490600052602060002090601f016020900481019282601f10611aed57805160ff1916838001178555611b1b565b82800160010185558215611b1b579182015b82811115611b1a578251825591602001919060010190611aff565b5b509050611b289190611b4e565b5090565b6060604051908101604052806060815260200160608152602001606081525090565b611b7091905b80821115611b6c576000816000905550600101611b54565b5090565b9056fea165627a7a723058203cd7e53bc5d3d3b361bb6a4db34fce41ca0455b5b845bd94b61961c19bd73a1d0029",
  "source": "// SPDX-License-Identifier: MIT\npragma solidity >=0.4.22 <0.9.0;\n\ncontract Merchant {\n    uint256 public storecount = 0;\n\n    struct store {\n        string name;\n        string location;\n        string account;\n    }\n\n    mapping(uint256 => store) public Stores;\n\n    uint256 public prodCount = 0;\n\n    struct product {\n        string prodName;\n        string category;\n        uint256 price;\n        uint256 prFloat; // This holds the decimal points for the price of the product\n        uint256 stock;\n        string desc;\n        string storeName;\n    }\n\n    mapping(uint256 => product) public products;\n\n    function createStore(\n        string memory email,\n        string memory storeName,\n        string memory location\n    ) public {\n        Stores[++storecount] = store(storeName, location, email);\n    }\n\n    //  Function to just edit the details of an existing store\n    function editStore(\n        uint256 id,\n        string memory storeName,\n        string memory location\n    ) public {\n        store memory _tempstore = Stores[id];\n        Stores[id] = store(storeName, location, _tempstore.account);\n    }\n\n    function addProduct(\n        string memory name,\n        string memory prodCat,\n        uint256 price,\n        uint256 float,\n        uint256 initStock,\n        string memory description,\n        string memory storeName\n    ) public {\n        products[++prodCount] = product(\n            name,\n            prodCat,\n            price,\n            float,\n            initStock,\n            description,\n            storeName\n        );\n    }\n\n    function delProduct(uint256 id) public {\n        if (id == prodCount) {\n            prodCount--;\n        }\n\n        products[id].prodName = \"\";\n        products[id].category = \"\";\n        products[id].price = 0;\n        products[id].prFloat = 0;\n        products[id].stock = 0;\n        products[id].desc = \"\";\n        products[id].storeName = \"\";\n    }\n\n    function setStock(uint256 id, uint256 newStock) public {\n        products[id].stock = newStock;\n    }\n\n    // Handle reviews\n    uint256 public reviewCount = 0;\n\n    struct Review {\n        uint256 prodId;\n        string text;\n        string reviewee;\n    }\n\n    mapping(uint256 => Review) public reviews;\n\n    function addReview(\n        uint256 id,\n        string memory text,\n        string memory email\n    ) public {\n        reviews[++reviewCount] = Review(id, text, email);\n    }\n}\n",
  "sourcePath": "/home/a_rahim/KDU/FYP Project/finalapp/src/Truffle - Backend/contracts/Merchant.sol",
  "compiler": {
    "name": "solc",
    "version": "0.5.0+commit.1d4f565a.Emscripten.clang"
  },
  "schemaVersion": "3.0.1",
  "updatedAt": "2022-10-26T05:20:32.658Z",
  "devdoc": {
    "methods": {}
  },
  "userdoc": {
    "methods": {}
  }
}