{
  "contractName": "Merchant",
  "abi": [
    {
      "constant": true,
      "inputs": [],
      "name": "prodCount",
      "outputs": [
        {
          "name": "",
          "type": "uint256"
        }
      ],
      "payable": false,
      "stateMutability": "view",
      "type": "function",
      "signature": "0x017e19a3"
    },
    {
      "constant": true,
      "inputs": [
        {
          "name": "",
          "type": "uint256"
        }
      ],
      "name": "products",
      "outputs": [
        {
          "name": "prodName",
          "type": "string"
        },
        {
          "name": "category",
          "type": "string"
        },
        {
          "name": "price",
          "type": "uint256"
        },
        {
          "name": "stock",
          "type": "uint256"
        },
        {
          "name": "desc",
          "type": "string"
        },
        {
          "name": "storeName",
          "type": "string"
        }
      ],
      "payable": false,
      "stateMutability": "view",
      "type": "function",
      "signature": "0x7acc0b20"
    },
    {
      "constant": true,
      "inputs": [],
      "name": "storecount",
      "outputs": [
        {
          "name": "",
          "type": "uint256"
        }
      ],
      "payable": false,
      "stateMutability": "view",
      "type": "function",
      "signature": "0x9356396b"
    },
    {
      "constant": true,
      "inputs": [
        {
          "name": "",
          "type": "uint256"
        }
      ],
      "name": "Stores",
      "outputs": [
        {
          "name": "name",
          "type": "string"
        },
        {
          "name": "location",
          "type": "string"
        },
        {
          "name": "account",
          "type": "string"
        }
      ],
      "payable": false,
      "stateMutability": "view",
      "type": "function",
      "signature": "0xdb464c8c"
    },
    {
      "constant": false,
      "inputs": [
        {
          "name": "email",
          "type": "string"
        },
        {
          "name": "storeName",
          "type": "string"
        },
        {
          "name": "location",
          "type": "string"
        }
      ],
      "name": "createStore",
      "outputs": [],
      "payable": false,
      "stateMutability": "nonpayable",
      "type": "function",
      "signature": "0x306368d2"
    },
    {
      "constant": false,
      "inputs": [
        {
          "name": "id",
          "type": "uint256"
        },
        {
          "name": "storeName",
          "type": "string"
        },
        {
          "name": "location",
          "type": "string"
        }
      ],
      "name": "editStore",
      "outputs": [],
      "payable": false,
      "stateMutability": "nonpayable",
      "type": "function",
      "signature": "0xeae20011"
    },
    {
      "constant": false,
      "inputs": [
        {
          "name": "name",
          "type": "string"
        },
        {
          "name": "prodCat",
          "type": "string"
        },
        {
          "name": "price",
          "type": "uint256"
        },
        {
          "name": "initStock",
          "type": "uint256"
        },
        {
          "name": "description",
          "type": "string"
        },
        {
          "name": "storeName",
          "type": "string"
        }
      ],
      "name": "addProduct",
      "outputs": [],
      "payable": false,
      "stateMutability": "nonpayable",
      "type": "function",
      "signature": "0xc4ec4f05"
    },
    {
      "constant": false,
      "inputs": [
        {
          "name": "id",
          "type": "uint256"
        }
      ],
      "name": "delProduct",
      "outputs": [],
      "payable": false,
      "stateMutability": "nonpayable",
      "type": "function",
      "signature": "0x71d7bcf8"
    }
  ],
  "bytecode": "0x608060405260008055600060025534801561001957600080fd5b50611627806100296000396000f3fe60806040526004361061008e576000357c0100000000000000000000000000000000000000000000000000000000900463ffffffff168063017e19a314610093578063306368d2146100be57806371d7bcf8146102b45780637acc0b20146102ef5780639356396b146104f5578063c4ec4f0514610520578063db464c8c146107c1578063eae200111461094d575b600080fd5b34801561009f57600080fd5b506100a8610ab6565b6040518082815260200191505060405180910390f35b3480156100ca57600080fd5b506102b2600480360360608110156100e157600080fd5b81019080803590602001906401000000008111156100fe57600080fd5b82018360208201111561011057600080fd5b8035906020019184600183028401116401000000008311171561013257600080fd5b91908080601f016020809104026020016040519081016040528093929190818152602001838380828437600081840152601f19601f8201169050808301925050505050505091929192908035906020019064010000000081111561019557600080fd5b8201836020820111156101a757600080fd5b803590602001918460018302840111640100000000831117156101c957600080fd5b91908080601f016020809104026020016040519081016040528093929190818152602001838380828437600081840152601f19601f8201169050808301925050505050505091929192908035906020019064010000000081111561022c57600080fd5b82018360208201111561023e57600080fd5b8035906020019184600183028401116401000000008311171561026057600080fd5b91908080601f016020809104026020016040519081016040528093929190818152602001838380828437600081840152601f19601f820116905080830192505050505050509192919290505050610abc565b005b3480156102c057600080fd5b506102ed600480360360208110156102d757600080fd5b8101908080359060200190929190505050610b57565b005b3480156102fb57600080fd5b506103286004803603602081101561031257600080fd5b8101908080359060200190929190505050610c9c565b604051808060200180602001878152602001868152602001806020018060200185810385528b818151815260200191508051906020019080838360005b83811015610380578082015181840152602081019050610365565b50505050905090810190601f1680156103ad5780820380516001836020036101000a031916815260200191505b5085810384528a818151815260200191508051906020019080838360005b838110156103e65780820151818401526020810190506103cb565b50505050905090810190601f1680156104135780820380516001836020036101000a031916815260200191505b50858103835287818151815260200191508051906020019080838360005b8381101561044c578082015181840152602081019050610431565b50505050905090810190601f1680156104795780820380516001836020036101000a031916815260200191505b50858103825286818151815260200191508051906020019080838360005b838110156104b2578082015181840152602081019050610497565b50505050905090810190601f1680156104df5780820380516001836020036101000a031916815260200191505b509a505050505050505050505060405180910390f35b34801561050157600080fd5b5061050a610f38565b6040518082815260200191505060405180910390f35b34801561052c57600080fd5b506107bf600480360360c081101561054357600080fd5b810190808035906020019064010000000081111561056057600080fd5b82018360208201111561057257600080fd5b8035906020019184600183028401116401000000008311171561059457600080fd5b91908080601f016020809104026020016040519081016040528093929190818152602001838380828437600081840152601f19601f820116905080830192505050505050509192919290803590602001906401000000008111156105f757600080fd5b82018360208201111561060957600080fd5b8035906020019184600183028401116401000000008311171561062b57600080fd5b91908080601f016020809104026020016040519081016040528093929190818152602001838380828437600081840152601f19601f8201169050808301925050505050505091929192908035906020019092919080359060200190929190803590602001906401000000008111156106a257600080fd5b8201836020820111156106b457600080fd5b803590602001918460018302840111640100000000831117156106d657600080fd5b91908080601f016020809104026020016040519081016040528093929190818152602001838380828437600081840152601f19601f8201169050808301925050505050505091929192908035906020019064010000000081111561073957600080fd5b82018360208201111561074b57600080fd5b8035906020019184600183028401116401000000008311171561076d57600080fd5b91908080601f016020809104026020016040519081016040528093929190818152602001838380828437600081840152601f19601f820116905080830192505050505050509192919290505050610f3e565b005b3480156107cd57600080fd5b506107fa600480360360208110156107e457600080fd5b8101908080359060200190929190505050611020565b60405180806020018060200180602001848103845287818151815260200191508051906020019080838360005b83811015610842578082015181840152602081019050610827565b50505050905090810190601f16801561086f5780820380516001836020036101000a031916815260200191505b50848103835286818151815260200191508051906020019080838360005b838110156108a857808201518184015260208101905061088d565b50505050905090810190601f1680156108d55780820380516001836020036101000a031916815260200191505b50848103825285818151815260200191508051906020019080838360005b8381101561090e5780820151818401526020810190506108f3565b50505050905090810190601f16801561093b5780820380516001836020036101000a031916815260200191505b50965050505050505060405180910390f35b34801561095957600080fd5b50610ab46004803603606081101561097057600080fd5b81019080803590602001909291908035906020019064010000000081111561099757600080fd5b8201836020820111156109a957600080fd5b803590602001918460018302840111640100000000831117156109cb57600080fd5b91908080601f016020809104026020016040519081016040528093929190818152602001838380828437600081840152601f19601f82011690508083019250505050505050919291929080359060200190640100000000811115610a2e57600080fd5b820183602082011115610a4057600080fd5b80359060200191846001830284011164010000000083111715610a6257600080fd5b91908080601f016020809104026020016040519081016040528093929190818152602001838380828437600081840152601f19601f820116905080830192505050505050509192919290505050611212565b005b60025481565b6060604051908101604052808381526020018281526020018481525060016000806000815460010191905081905581526020019081526020016000206000820151816000019080519060200190610b149291906114b4565b506020820151816001019080519060200190610b319291906114b4565b506040820151816002019080519060200190610b4e9291906114b4565b50905050505050565b600254811415610b7557600260008154809291906001900391905055505b6020604051908101604052806000815250600360008381526020019081526020016000206000019080519060200190610baf929190611534565b506020604051908101604052806000815250600360008381526020019081526020016000206001019080519060200190610bea929190611534565b5060006003600083815260200190815260200160002060020181905550600060036000838152602001908152602001600020600301819055506020604051908101604052806000815250600360008381526020019081526020016000206004019080519060200190610c5d929190611534565b506020604051908101604052806000815250600360008381526020019081526020016000206005019080519060200190610c98929190611534565b5050565b6003602052806000526040600020600091509050806000018054600181600116156101000203166002900480601f016020809104026020016040519081016040528092919081815260200182805460018160011615610100020316600290048015610d485780601f10610d1d57610100808354040283529160200191610d48565b820191906000526020600020905b815481529060010190602001808311610d2b57829003601f168201915b505050505090806001018054600181600116156101000203166002900480601f016020809104026020016040519081016040528092919081815260200182805460018160011615610100020316600290048015610de65780601f10610dbb57610100808354040283529160200191610de6565b820191906000526020600020905b815481529060010190602001808311610dc957829003601f168201915b505050505090806002015490806003015490806004018054600181600116156101000203166002900480601f016020809104026020016040519081016040528092919081815260200182805460018160011615610100020316600290048015610e905780601f10610e6557610100808354040283529160200191610e90565b820191906000526020600020905b815481529060010190602001808311610e7357829003601f168201915b505050505090806005018054600181600116156101000203166002900480601f016020809104026020016040519081016040528092919081815260200182805460018160011615610100020316600290048015610f2e5780601f10610f0357610100808354040283529160200191610f2e565b820191906000526020600020905b815481529060010190602001808311610f1157829003601f168201915b5050505050905086565b60005481565b60c060405190810160405280878152602001868152602001858152602001848152602001838152602001828152506003600060026000815460010191905081905581526020019081526020016000206000820151816000019080519060200190610fa99291906114b4565b506020820151816001019080519060200190610fc69291906114b4565b5060408201518160020155606082015181600301556080820151816004019080519060200190610ff79291906114b4565b5060a08201518160050190805190602001906110149291906114b4565b50905050505050505050565b6001602052806000526040600020600091509050806000018054600181600116156101000203166002900480601f0160208091040260200160405190810160405280929190818152602001828054600181600116156101000203166002900480156110cc5780601f106110a1576101008083540402835291602001916110cc565b820191906000526020600020905b8154815290600101906020018083116110af57829003601f168201915b505050505090806001018054600181600116156101000203166002900480601f01602080910402602001604051908101604052809291908181526020018280546001816001161561010002031660029004801561116a5780601f1061113f5761010080835404028352916020019161116a565b820191906000526020600020905b81548152906001019060200180831161114d57829003601f168201915b505050505090806002018054600181600116156101000203166002900480601f0160208091040260200160405190810160405280929190818152602001828054600181600116156101000203166002900480156112085780601f106111dd57610100808354040283529160200191611208565b820191906000526020600020905b8154815290600101906020018083116111eb57829003601f168201915b5050505050905083565b61121a6115b4565b6001600085815260200190815260200160002060606040519081016040529081600082018054600181600116156101000203166002900480601f0160208091040260200160405190810160405280929190818152602001828054600181600116156101000203166002900480156112d25780601f106112a7576101008083540402835291602001916112d2565b820191906000526020600020905b8154815290600101906020018083116112b557829003601f168201915b50505050508152602001600182018054600181600116156101000203166002900480601f0160208091040260200160405190810160405280929190818152602001828054600181600116156101000203166002900480156113745780601f1061134957610100808354040283529160200191611374565b820191906000526020600020905b81548152906001019060200180831161135757829003601f168201915b50505050508152602001600282018054600181600116156101000203166002900480601f0160208091040260200160405190810160405280929190818152602001828054600181600116156101000203166002900480156114165780601f106113eb57610100808354040283529160200191611416565b820191906000526020600020905b8154815290600101906020018083116113f957829003601f168201915b505050505081525050905060606040519081016040528084815260200183815260200182604001518152506001600086815260200190815260200160002060008201518160000190805190602001906114709291906114b4565b50602082015181600101908051906020019061148d9291906114b4565b5060408201518160020190805190602001906114aa9291906114b4565b5090505050505050565b828054600181600116156101000203166002900490600052602060002090601f016020900481019282601f106114f557805160ff1916838001178555611523565b82800160010185558215611523579182015b82811115611522578251825591602001919060010190611507565b5b50905061153091906115d6565b5090565b828054600181600116156101000203166002900490600052602060002090601f016020900481019282601f1061157557805160ff19168380011785556115a3565b828001600101855582156115a3579182015b828111156115a2578251825591602001919060010190611587565b5b5090506115b091906115d6565b5090565b6060604051908101604052806060815260200160608152602001606081525090565b6115f891905b808211156115f45760008160009055506001016115dc565b5090565b9056fea165627a7a723058205a2c5c96f6121973288cc15bcd58cfd2fbfa0313a59c595edb94e09cf4ea422b0029",
  "source": "// SPDX-License-Identifier: MIT\npragma solidity >=0.4.22 <0.9.0;\n\ncontract Merchant {\n    uint256 public storecount = 0;\n\n    struct store {\n        string name;\n        string location;\n        string account;\n    }\n\n    mapping(uint256 => store) public Stores;\n\n    uint256 public prodCount = 0;\n\n    struct product {\n        string prodName;\n        string category;\n        uint256 price;\n        uint256 stock;\n        string desc;\n        string storeName;\n    }\n\n    mapping(uint256 => product) public products;\n\n    function createStore(\n        string memory email,\n        string memory storeName,\n        string memory location\n    ) public {\n        Stores[++storecount] = store(storeName, location, email);\n    }\n\n    //  Function to just edit the details of an existing store\n    function editStore(\n        uint256 id,\n        string memory storeName,\n        string memory location\n    ) public {\n        store memory _tempstore = Stores[id];\n        Stores[id] = store(storeName, location, _tempstore.account);\n    }\n\n    function addProduct(\n        string memory name,\n        string memory prodCat,\n        uint256 price,\n        uint256 initStock,\n        string memory description,\n        string memory storeName\n    ) public {\n        products[++prodCount] = product(\n            name,\n            prodCat,\n            price,\n            initStock,\n            description,\n            storeName\n        );\n    }\n\n    function delProduct(uint256 id) public {\n        if (id == prodCount) {\n            prodCount--;\n        }\n\n        products[id].prodName = \"\";\n        products[id].category = \"\";\n        products[id].price = 0;\n        products[id].stock = 0;\n        products[id].desc = \"\";\n        products[id].storeName = \"\";\n    }\n}\n",
  "sourcePath": "/home/a_rahim/KDU/FYP Project/finalapp/src/Truffle - Backend/contracts/Merchant.sol",
  "compiler": {
    "name": "solc",
    "version": "0.5.0+commit.1d4f565a.Emscripten.clang"
  },
  "schemaVersion": "3.0.1",
  "updatedAt": "2022-10-09T11:55:51.634Z",
  "devdoc": {
    "methods": {}
  },
  "userdoc": {
    "methods": {}
  }
}