{
  "contractName": "Merchant",
  "abi": [
    {
      "constant": true,
      "inputs": [],
      "name": "prodCount",
      "outputs": [
        {
          "name": "",
          "type": "uint256"
        }
      ],
      "payable": false,
      "stateMutability": "view",
      "type": "function",
      "signature": "0x017e19a3"
    },
    {
      "constant": true,
      "inputs": [
        {
          "name": "",
          "type": "uint256"
        }
      ],
      "name": "products",
      "outputs": [
        {
          "name": "prodName",
          "type": "string"
        },
        {
          "name": "category",
          "type": "string"
        },
        {
          "name": "price",
          "type": "uint256"
        },
        {
          "name": "prFloat",
          "type": "uint256"
        },
        {
          "name": "stock",
          "type": "uint256"
        },
        {
          "name": "desc",
          "type": "string"
        },
        {
          "name": "storeName",
          "type": "string"
        }
      ],
      "payable": false,
      "stateMutability": "view",
      "type": "function",
      "signature": "0x7acc0b20"
    },
    {
      "constant": true,
      "inputs": [],
      "name": "storecount",
      "outputs": [
        {
          "name": "",
          "type": "uint256"
        }
      ],
      "payable": false,
      "stateMutability": "view",
      "type": "function",
      "signature": "0x9356396b"
    },
    {
      "constant": true,
      "inputs": [
        {
          "name": "",
          "type": "uint256"
        }
      ],
      "name": "Stores",
      "outputs": [
        {
          "name": "name",
          "type": "string"
        },
        {
          "name": "location",
          "type": "string"
        },
        {
          "name": "account",
          "type": "string"
        }
      ],
      "payable": false,
      "stateMutability": "view",
      "type": "function",
      "signature": "0xdb464c8c"
    },
    {
      "constant": false,
      "inputs": [
        {
          "name": "email",
          "type": "string"
        },
        {
          "name": "storeName",
          "type": "string"
        },
        {
          "name": "location",
          "type": "string"
        }
      ],
      "name": "createStore",
      "outputs": [],
      "payable": false,
      "stateMutability": "nonpayable",
      "type": "function",
      "signature": "0x306368d2"
    },
    {
      "constant": false,
      "inputs": [
        {
          "name": "id",
          "type": "uint256"
        },
        {
          "name": "storeName",
          "type": "string"
        },
        {
          "name": "location",
          "type": "string"
        }
      ],
      "name": "editStore",
      "outputs": [],
      "payable": false,
      "stateMutability": "nonpayable",
      "type": "function",
      "signature": "0xeae20011"
    },
    {
      "constant": false,
      "inputs": [
        {
          "name": "name",
          "type": "string"
        },
        {
          "name": "prodCat",
          "type": "string"
        },
        {
          "name": "price",
          "type": "uint256"
        },
        {
          "name": "float",
          "type": "uint256"
        },
        {
          "name": "initStock",
          "type": "uint256"
        },
        {
          "name": "description",
          "type": "string"
        },
        {
          "name": "storeName",
          "type": "string"
        }
      ],
      "name": "addProduct",
      "outputs": [],
      "payable": false,
      "stateMutability": "nonpayable",
      "type": "function",
      "signature": "0x806e7982"
    },
    {
      "constant": false,
      "inputs": [
        {
          "name": "id",
          "type": "uint256"
        }
      ],
      "name": "delProduct",
      "outputs": [],
      "payable": false,
      "stateMutability": "nonpayable",
      "type": "function",
      "signature": "0x71d7bcf8"
    },
    {
      "constant": false,
      "inputs": [
        {
          "name": "id",
          "type": "uint256"
        },
        {
          "name": "newStock",
          "type": "uint256"
        }
      ],
      "name": "setStock",
      "outputs": [],
      "payable": false,
      "stateMutability": "nonpayable",
      "type": "function",
      "signature": "0xeb655591"
    },
    {
      "constant": false,
      "inputs": [
        {
          "name": "id",
          "type": "uint256"
        },
        {
          "name": "review",
          "type": "string"
        }
      ],
      "name": "addReview",
      "outputs": [],
      "payable": false,
      "stateMutability": "nonpayable",
      "type": "function",
      "signature": "0x5bb0c5d6"
    }
  ],
  "bytecode": "0x608060405260008055600060025534801561001957600080fd5b50611979806100296000396000f3fe6080604052600436106100a4576000357c0100000000000000000000000000000000000000000000000000000000900463ffffffff168063017e19a3146100a9578063306368d2146100d45780635bb0c5d6146102ca57806371d7bcf81461039c5780637acc0b20146103d7578063806e7982146105e45780639356396b1461088f578063db464c8c146108ba578063eae2001114610a46578063eb65559114610baf575b600080fd5b3480156100b557600080fd5b506100be610bf4565b6040518082815260200191505060405180910390f35b3480156100e057600080fd5b506102c8600480360360608110156100f757600080fd5b810190808035906020019064010000000081111561011457600080fd5b82018360208201111561012657600080fd5b8035906020019184600183028401116401000000008311171561014857600080fd5b91908080601f016020809104026020016040519081016040528093929190818152602001838380828437600081840152601f19601f820116905080830192505050505050509192919290803590602001906401000000008111156101ab57600080fd5b8201836020820111156101bd57600080fd5b803590602001918460018302840111640100000000831117156101df57600080fd5b91908080601f016020809104026020016040519081016040528093929190818152602001838380828437600081840152601f19601f8201169050808301925050505050505091929192908035906020019064010000000081111561024257600080fd5b82018360208201111561025457600080fd5b8035906020019184600183028401116401000000008311171561027657600080fd5b91908080601f016020809104026020016040519081016040528093929190818152602001838380828437600081840152601f19601f820116905080830192505050505050509192919290505050610bfa565b005b3480156102d657600080fd5b5061039a600480360360408110156102ed57600080fd5b81019080803590602001909291908035906020019064010000000081111561031457600080fd5b82018360208201111561032657600080fd5b8035906020019184600183028401116401000000008311171561034857600080fd5b91908080601f016020809104026020016040519081016040528093929190818152602001838380828437600081840152601f19601f820116905080830192505050505050509192919290505050610c95565b005b3480156103a857600080fd5b506103d5600480360360208110156103bf57600080fd5b8101908080359060200190929190505050610cec565b005b3480156103e357600080fd5b50610410600480360360208110156103fa57600080fd5b8101908080359060200190929190505050610e6f565b604051808060200180602001888152602001878152602001868152602001806020018060200185810385528c818151815260200191508051906020019080838360005b8381101561046e578082015181840152602081019050610453565b50505050905090810190601f16801561049b5780820380516001836020036101000a031916815260200191505b5085810384528b818151815260200191508051906020019080838360005b838110156104d45780820151818401526020810190506104b9565b50505050905090810190601f1680156105015780820380516001836020036101000a031916815260200191505b50858103835287818151815260200191508051906020019080838360005b8381101561053a57808201518184015260208101905061051f565b50505050905090810190601f1680156105675780820380516001836020036101000a031916815260200191505b50858103825286818151815260200191508051906020019080838360005b838110156105a0578082015181840152602081019050610585565b50505050905090810190601f1680156105cd5780820380516001836020036101000a031916815260200191505b509b50505050505050505050505060405180910390f35b3480156105f057600080fd5b5061088d600480360360e081101561060757600080fd5b810190808035906020019064010000000081111561062457600080fd5b82018360208201111561063657600080fd5b8035906020019184600183028401116401000000008311171561065857600080fd5b91908080601f016020809104026020016040519081016040528093929190818152602001838380828437600081840152601f19601f820116905080830192505050505050509192919290803590602001906401000000008111156106bb57600080fd5b8201836020820111156106cd57600080fd5b803590602001918460018302840111640100000000831117156106ef57600080fd5b91908080601f016020809104026020016040519081016040528093929190818152602001838380828437600081840152601f19601f8201169050808301925050505050505091929192908035906020019092919080359060200190929190803590602001909291908035906020019064010000000081111561077057600080fd5b82018360208201111561078257600080fd5b803590602001918460018302840111640100000000831117156107a457600080fd5b91908080601f016020809104026020016040519081016040528093929190818152602001838380828437600081840152601f19601f8201169050808301925050505050505091929192908035906020019064010000000081111561080757600080fd5b82018360208201111561081957600080fd5b8035906020019184600183028401116401000000008311171561083b57600080fd5b91908080601f016020809104026020016040519081016040528093929190818152602001838380828437600081840152601f19601f820116905080830192505050505050509192919290505050611111565b005b34801561089b57600080fd5b506108a4611258565b6040518082815260200191505060405180910390f35b3480156108c657600080fd5b506108f3600480360360208110156108dd57600080fd5b810190808035906020019092919050505061125e565b60405180806020018060200180602001848103845287818151815260200191508051906020019080838360005b8381101561093b578082015181840152602081019050610920565b50505050905090810190601f1680156109685780820380516001836020036101000a031916815260200191505b50848103835286818151815260200191508051906020019080838360005b838110156109a1578082015181840152602081019050610986565b50505050905090810190601f1680156109ce5780820380516001836020036101000a031916815260200191505b50848103825285818151815260200191508051906020019080838360005b83811015610a075780820151818401526020810190506109ec565b50505050905090810190601f168015610a345780820380516001836020036101000a031916815260200191505b50965050505050505060405180910390f35b348015610a5257600080fd5b50610bad60048036036060811015610a6957600080fd5b810190808035906020019092919080359060200190640100000000811115610a9057600080fd5b820183602082011115610aa257600080fd5b80359060200191846001830284011164010000000083111715610ac457600080fd5b91908080601f016020809104026020016040519081016040528093929190818152602001838380828437600081840152601f19601f82011690508083019250505050505050919291929080359060200190640100000000811115610b2757600080fd5b820183602082011115610b3957600080fd5b80359060200191846001830284011164010000000083111715610b5b57600080fd5b91908080601f016020809104026020016040519081016040528093929190818152602001838380828437600081840152601f19601f820116905080830192505050505050509192919290505050611450565b005b348015610bbb57600080fd5b50610bf260048036036040811015610bd257600080fd5b8101908080359060200190929190803590602001909291905050506116f2565b005b60025481565b6060604051908101604052808381526020018281526020018481525060016000806000815460010191905081905581526020019081526020016000206000820151816000019080519060200190610c52929190611711565b506020820151816001019080519060200190610c6f929190611711565b506040820151816002019080519060200190610c8c929190611711565b50905050505050565b60036000838152602001908152602001600020600701819080600181540180825580915050906001820390600052602060002001600090919290919091509080519060200190610ce6929190611791565b50505050565b600254811415610d0a57600260008154809291906001900391905055505b6020604051908101604052806000815250600360008381526020019081526020016000206000019080519060200190610d44929190611791565b506020604051908101604052806000815250600360008381526020019081526020016000206001019080519060200190610d7f929190611791565b506000600360008381526020019081526020016000206002018190555060006003600083815260200190815260200160002060030181905550600060036000838152602001908152602001600020600401819055506020604051908101604052806000815250600360008381526020019081526020016000206005019080519060200190610e0e929190611791565b506020604051908101604052806000815250600360008381526020019081526020016000206006019080519060200190610e49929190611791565b50600360008281526020019081526020016000206007016000610e6c9190611811565b50565b6003602052806000526040600020600091509050806000018054600181600116156101000203166002900480601f016020809104026020016040519081016040528092919081815260200182805460018160011615610100020316600290048015610f1b5780601f10610ef057610100808354040283529160200191610f1b565b820191906000526020600020905b815481529060010190602001808311610efe57829003601f168201915b505050505090806001018054600181600116156101000203166002900480601f016020809104026020016040519081016040528092919081815260200182805460018160011615610100020316600290048015610fb95780601f10610f8e57610100808354040283529160200191610fb9565b820191906000526020600020905b815481529060010190602001808311610f9c57829003601f168201915b505050505090806002015490806003015490806004015490806005018054600181600116156101000203166002900480601f0160208091040260200160405190810160405280929190818152602001828054600181600116156101000203166002900480156110695780601f1061103e57610100808354040283529160200191611069565b820191906000526020600020905b81548152906001019060200180831161104c57829003601f168201915b505050505090806006018054600181600116156101000203166002900480601f0160208091040260200160405190810160405280929190818152602001828054600181600116156101000203166002900480156111075780601f106110dc57610100808354040283529160200191611107565b820191906000526020600020905b8154815290600101906020018083116110ea57829003601f168201915b5050505050905087565b6060602060405190810160405280600081525081600081518110151561113357fe5b90602001906020020181905250610100604051908101604052808981526020018881526020018781526020018681526020018581526020018481526020018381526020018281525060036000600260008154600101919050819055815260200190815260200160002060008201518160000190805190602001906111b8929190611711565b5060208201518160010190805190602001906111d5929190611711565b5060408201518160020155606082015181600301556080820151816004015560a0820151816005019080519060200190611210929190611711565b5060c082015181600601908051906020019061122d929190611711565b5060e082015181600701908051906020019061124a929190611832565b509050505050505050505050565b60005481565b6001602052806000526040600020600091509050806000018054600181600116156101000203166002900480601f01602080910402602001604051908101604052809291908181526020018280546001816001161561010002031660029004801561130a5780601f106112df5761010080835404028352916020019161130a565b820191906000526020600020905b8154815290600101906020018083116112ed57829003601f168201915b505050505090806001018054600181600116156101000203166002900480601f0160208091040260200160405190810160405280929190818152602001828054600181600116156101000203166002900480156113a85780601f1061137d576101008083540402835291602001916113a8565b820191906000526020600020905b81548152906001019060200180831161138b57829003601f168201915b505050505090806002018054600181600116156101000203166002900480601f0160208091040260200160405190810160405280929190818152602001828054600181600116156101000203166002900480156114465780601f1061141b57610100808354040283529160200191611446565b820191906000526020600020905b81548152906001019060200180831161142957829003601f168201915b5050505050905083565b611458611892565b6001600085815260200190815260200160002060606040519081016040529081600082018054600181600116156101000203166002900480601f0160208091040260200160405190810160405280929190818152602001828054600181600116156101000203166002900480156115105780601f106114e557610100808354040283529160200191611510565b820191906000526020600020905b8154815290600101906020018083116114f357829003601f168201915b50505050508152602001600182018054600181600116156101000203166002900480601f0160208091040260200160405190810160405280929190818152602001828054600181600116156101000203166002900480156115b25780601f10611587576101008083540402835291602001916115b2565b820191906000526020600020905b81548152906001019060200180831161159557829003601f168201915b50505050508152602001600282018054600181600116156101000203166002900480601f0160208091040260200160405190810160405280929190818152602001828054600181600116156101000203166002900480156116545780601f1061162957610100808354040283529160200191611654565b820191906000526020600020905b81548152906001019060200180831161163757829003601f168201915b505050505081525050905060606040519081016040528084815260200183815260200182604001518152506001600086815260200190815260200160002060008201518160000190805190602001906116ae929190611711565b5060208201518160010190805190602001906116cb929190611711565b5060408201518160020190805190602001906116e8929190611711565b5090505050505050565b8060036000848152602001908152602001600020600401819055505050565b828054600181600116156101000203166002900490600052602060002090601f016020900481019282601f1061175257805160ff1916838001178555611780565b82800160010185558215611780579182015b8281111561177f578251825591602001919060010190611764565b5b50905061178d91906118b4565b5090565b828054600181600116156101000203166002900490600052602060002090601f016020900481019282601f106117d257805160ff1916838001178555611800565b82800160010185558215611800579182015b828111156117ff5782518255916020019190600101906117e4565b5b50905061180d91906118b4565b5090565b508054600082559060005260206000209081019061182f91906118d9565b50565b828054828255906000526020600020908101928215611881579160200282015b82811115611880578251829080519060200190611870929190611711565b5091602001919060010190611852565b5b50905061188e91906118d9565b5090565b6060604051908101604052806060815260200160608152602001606081525090565b6118d691905b808211156118d25760008160009055506001016118ba565b5090565b90565b61190291905b808211156118fe57600081816118f59190611905565b506001016118df565b5090565b90565b50805460018160011615610100020316600290046000825580601f1061192b575061194a565b601f01602090049060005260206000209081019061194991906118b4565b5b5056fea165627a7a72305820b3f681af4e909b369869f3f0f5893f8e6aa76aeb02933bd1e3da6a0e9c5caced0029",
  "source": "// SPDX-License-Identifier: MIT\npragma solidity >=0.4.22 <0.9.0;\n\ncontract Merchant {\n    uint256 public storecount = 0;\n\n    struct store {\n        string name;\n        string location;\n        string account;\n    }\n\n    mapping(uint256 => store) public Stores;\n\n    uint256 public prodCount = 0;\n\n    struct product {\n        string prodName;\n        string category;\n        uint256 price;\n        uint256 prFloat; // This holds the decimal points for the price of the product\n        uint256 stock;\n        string desc;\n        string storeName;\n        string[] review;\n    }\n\n    mapping(uint256 => product) public products;\n\n    function createStore(\n        string memory email,\n        string memory storeName,\n        string memory location\n    ) public {\n        Stores[++storecount] = store(storeName, location, email);\n    }\n\n    //  Function to just edit the details of an existing store\n    function editStore(\n        uint256 id,\n        string memory storeName,\n        string memory location\n    ) public {\n        store memory _tempstore = Stores[id];\n        Stores[id] = store(storeName, location, _tempstore.account);\n    }\n\n    function addProduct(\n        string memory name,\n        string memory prodCat,\n        uint256 price,\n        uint256 float,\n        uint256 initStock,\n        string memory description,\n        string memory storeName\n    ) public {\n        string[] memory review;\n        review[0] = \"\";\n        products[++prodCount] = product(\n            name,\n            prodCat,\n            price,\n            float,\n            initStock,\n            description,\n            storeName,\n            review\n        );\n    }\n\n    function delProduct(uint256 id) public {\n        if (id == prodCount) {\n            prodCount--;\n        }\n\n        products[id].prodName = \"\";\n        products[id].category = \"\";\n        products[id].price = 0;\n        products[id].prFloat = 0;\n        products[id].stock = 0;\n        products[id].desc = \"\";\n        products[id].storeName = \"\";\n        delete products[id].review;\n    }\n\n    function setStock(uint256 id, uint256 newStock) public {\n        products[id].stock = newStock;\n    }\n\n    function addReview(uint256 id, string memory review) public {\n        products[id].review.push(review);\n    }\n}\n",
  "sourcePath": "/home/a_rahim/KDU/FYP Project/finalapp/src/Truffle - Backend/contracts/Merchant.sol",
  "compiler": {
    "name": "solc",
    "version": "0.5.0+commit.1d4f565a.Emscripten.clang"
  },
  "schemaVersion": "3.0.1",
  "updatedAt": "2022-10-20T13:33:07.874Z",
  "devdoc": {
    "methods": {}
  },
  "userdoc": {
    "methods": {}
  }
}