{
  "contractName": "Merchant",
  "abi": [
    {
      "constant": true,
      "inputs": [],
      "name": "prodCount",
      "outputs": [
        {
          "name": "",
          "type": "uint256"
        }
      ],
      "payable": false,
      "stateMutability": "view",
      "type": "function",
      "signature": "0x017e19a3"
    },
    {
      "constant": true,
      "inputs": [
        {
          "name": "",
          "type": "uint256"
        }
      ],
      "name": "products",
      "outputs": [
        {
          "name": "prodName",
          "type": "string"
        },
        {
          "name": "price",
          "type": "uint256"
        },
        {
          "name": "stock",
          "type": "uint256"
        },
        {
          "name": "desc",
          "type": "string"
        },
        {
          "name": "storeName",
          "type": "string"
        }
      ],
      "payable": false,
      "stateMutability": "view",
      "type": "function",
      "signature": "0x7acc0b20"
    },
    {
      "constant": false,
      "inputs": [
        {
          "name": "email",
          "type": "string"
        },
        {
          "name": "storeName",
          "type": "string"
        },
        {
          "name": "location",
          "type": "string"
        }
      ],
      "name": "setStore",
      "outputs": [],
      "payable": false,
      "stateMutability": "nonpayable",
      "type": "function",
      "signature": "0xad9eefe5"
    },
    {
      "constant": false,
      "inputs": [
        {
          "name": "storeName",
          "type": "string"
        },
        {
          "name": "name",
          "type": "string"
        },
        {
          "name": "price",
          "type": "uint256"
        },
        {
          "name": "initStock",
          "type": "uint256"
        },
        {
          "name": "description",
          "type": "string"
        }
      ],
      "name": "addProduct",
      "outputs": [],
      "payable": false,
      "stateMutability": "nonpayable",
      "type": "function",
      "signature": "0x6daf0fbb"
    },
    {
      "constant": false,
      "inputs": [
        {
          "name": "prodName",
          "type": "string"
        }
      ],
      "name": "delProduct",
      "outputs": [],
      "payable": false,
      "stateMutability": "nonpayable",
      "type": "function",
      "signature": "0x206c1843"
    }
  ],
  "bytecode": "0x6080604052600060015534801561001557600080fd5b50610ef7806100256000396000f3fe60806040526004361061006d576000357c0100000000000000000000000000000000000000000000000000000000900463ffffffff168063017e19a314610072578063206c18431461009d5780636daf0fbb146101655780637acc0b201461036f578063ad9eefe514610509575b600080fd5b34801561007e57600080fd5b506100876106ff565b6040518082815260200191505060405180910390f35b3480156100a957600080fd5b50610163600480360360208110156100c057600080fd5b81019080803590602001906401000000008111156100dd57600080fd5b8201836020820111156100ef57600080fd5b8035906020019184600183028401116401000000008311171561011157600080fd5b91908080601f016020809104026020016040519081016040528093929190818152602001838380828437600081840152601f19601f820116905080830192505050505050509192919290505050610705565b005b34801561017157600080fd5b5061036d600480360360a081101561018857600080fd5b81019080803590602001906401000000008111156101a557600080fd5b8201836020820111156101b757600080fd5b803590602001918460018302840111640100000000831117156101d957600080fd5b91908080601f016020809104026020016040519081016040528093929190818152602001838380828437600081840152601f19601f8201169050808301925050505050505091929192908035906020019064010000000081111561023c57600080fd5b82018360208201111561024e57600080fd5b8035906020019184600183028401116401000000008311171561027057600080fd5b91908080601f016020809104026020016040519081016040528093929190818152602001838380828437600081840152601f19601f8201169050808301925050505050505091929192908035906020019092919080359060200190929190803590602001906401000000008111156102e757600080fd5b8201836020820111156102f957600080fd5b8035906020019184600183028401116401000000008311171561031b57600080fd5b91908080601f016020809104026020016040519081016040528093929190818152602001838380828437600081840152601f19601f8201169050808301925050505050505091929192905050506109df565b005b34801561037b57600080fd5b506103a86004803603602081101561039257600080fd5b8101908080359060200190929190505050610a9d565b60405180806020018681526020018581526020018060200180602001848103845289818151815260200191508051906020019080838360005b838110156103fc5780820151818401526020810190506103e1565b50505050905090810190601f1680156104295780820380516001836020036101000a031916815260200191505b50848103835286818151815260200191508051906020019080838360005b83811015610462578082015181840152602081019050610447565b50505050905090810190601f16801561048f5780820380516001836020036101000a031916815260200191505b50848103825285818151815260200191508051906020019080838360005b838110156104c85780820151818401526020810190506104ad565b50505050905090810190601f1680156104f55780820380516001836020036101000a031916815260200191505b509850505050505050505060405180910390f35b34801561051557600080fd5b506106fd6004803603606081101561052c57600080fd5b810190808035906020019064010000000081111561054957600080fd5b82018360208201111561055b57600080fd5b8035906020019184600183028401116401000000008311171561057d57600080fd5b91908080601f016020809104026020016040519081016040528093929190818152602001838380828437600081840152601f19601f820116905080830192505050505050509192919290803590602001906401000000008111156105e057600080fd5b8201836020820111156105f257600080fd5b8035906020019184600183028401116401000000008311171561061457600080fd5b91908080601f016020809104026020016040519081016040528093929190818152602001838380828437600081840152601f19601f8201169050808301925050505050505091929192908035906020019064010000000081111561067757600080fd5b82018360208201111561068957600080fd5b803590602001918460018302840111640100000000831117156106ab57600080fd5b91908080601f016020809104026020016040519081016040528093929190818152602001838380828437600081840152601f19601f820116905080830192505050505050509192919290505050610c9b565b005b60015481565b6000600190505b600154811115156109db5773__StringLib_____________________________63ef01a9a883600260008581526020019081526020016000206000016040518363ffffffff167c0100000000000000000000000000000000000000000000000000000000028152600401808060200180602001838103835285818151815260200191508051906020019080838360005b838110156107b757808201518184015260208101905061079c565b50505050905090810190601f1680156107e45780820380516001836020036101000a031916815260200191505b508381038252848181546001816001161561010002031660029004815260200191508054600181600116156101000203166002900480156108665780601f1061083b57610100808354040283529160200191610866565b820191906000526020600020905b81548152906001019060200180831161084957829003601f168201915b505094505050505060206040518083038186803b15801561088657600080fd5b505af415801561089a573d6000803e3d6000fd5b505050506040513d60208110156108b057600080fd5b8101908080519060200190929190505050156109ce576001548114156108e457600160008154809291906001900391905055505b602060405190810160405280600081525060026000838152602001908152602001600020600001908051906020019061091e929190610da6565b5060006002600083815260200190815260200160002060010181905550600060026000838152602001908152602001600020600201819055506020604051908101604052806000815250600260008381526020019081526020016000206003019080519060200190610991929190610da6565b5060206040519081016040528060008152506002600083815260200190815260200160002060040190805190602001906109cc929190610da6565b505b808060010191505061070c565b5050565b60a060405190810160405280858152602001848152602001838152602001828152602001868152506002600060016000815460010191905081905581526020019081526020016000206000820151816000019080519060200190610a44929190610e26565b5060208201518160010155604082015181600201556060820151816003019080519060200190610a75929190610e26565b506080820151816004019080519060200190610a92929190610e26565b509050505050505050565b6002602052806000526040600020600091509050806000018054600181600116156101000203166002900480601f016020809104026020016040519081016040528092919081815260200182805460018160011615610100020316600290048015610b495780601f10610b1e57610100808354040283529160200191610b49565b820191906000526020600020905b815481529060010190602001808311610b2c57829003601f168201915b505050505090806001015490806002015490806003018054600181600116156101000203166002900480601f016020809104026020016040519081016040528092919081815260200182805460018160011615610100020316600290048015610bf35780601f10610bc857610100808354040283529160200191610bf3565b820191906000526020600020905b815481529060010190602001808311610bd657829003601f168201915b505050505090806004018054600181600116156101000203166002900480601f016020809104026020016040519081016040528092919081815260200182805460018160011615610100020316600290048015610c915780601f10610c6657610100808354040283529160200191610c91565b820191906000526020600020905b815481529060010190602001808311610c7457829003601f168201915b5050505050905085565b816000846040518082805190602001908083835b602083101515610cd45780518252602082019150602081019050602083039250610caf565b6001836020036101000a03801982511681845116808217855250505050505090500191505090815260200160405180910390206000019080519060200190610d1d929190610da6565b50806000846040518082805190602001908083835b602083101515610d575780518252602082019150602081019050602083039250610d32565b6001836020036101000a03801982511681845116808217855250505050505090500191505090815260200160405180910390206001019080519060200190610da0929190610da6565b50505050565b828054600181600116156101000203166002900490600052602060002090601f016020900481019282601f10610de757805160ff1916838001178555610e15565b82800160010185558215610e15579182015b82811115610e14578251825591602001919060010190610df9565b5b509050610e229190610ea6565b5090565b828054600181600116156101000203166002900490600052602060002090601f016020900481019282601f10610e6757805160ff1916838001178555610e95565b82800160010185558215610e95579182015b82811115610e94578251825591602001919060010190610e79565b5b509050610ea29190610ea6565b5090565b610ec891905b80821115610ec4576000816000905550600101610eac565b5090565b9056fea165627a7a72305820f9b2da35f7c2f8106d154ebab81a3e59e0770e608b1facaa6bcfaa1da302b5620029",
  "source": "// SPDX-License-Identifier: MIT\npragma solidity >=0.4.22 <0.9.0;\nimport \"./StringLib.sol\";\n\ncontract Merchant {\n    struct store {\n        string name;\n        string location;\n    }\n\n    mapping(string => store) internal Stores;\n\n    uint256 public prodCount = 0;\n\n    struct product {\n        string prodName;\n        uint256 price;\n        uint256 stock;\n        string desc;\n        string storeName;\n    }\n\n    mapping(uint256 => product) public products;\n\n    function setStore(\n        string memory email,\n        string memory storeName,\n        string memory location\n    ) public {\n        Stores[email].name = storeName;\n        Stores[email].location = location;\n    }\n\n    function addProduct(\n        string memory storeName,\n        string memory name,\n        uint256 price,\n        uint256 initStock,\n        string memory description\n    ) public {\n        products[++prodCount] = product(\n            name,\n            price,\n            initStock,\n            description,\n            storeName\n        );\n    }\n\n    function delProduct(string memory prodName) public {\n        for (uint256 i = 1; i <= prodCount; i++) {\n            if (StringLib.compareTwoStrings(prodName, products[i].prodName)) {\n                if (i == prodCount) {\n                    prodCount--;\n                }\n\n                products[i].prodName = \"\";\n                products[i].price = 0;\n                products[i].stock = 0;\n                products[i].desc = \"\";\n                products[i].storeName = \"\";\n            }\n        }\n    }\n}\n",
  "sourcePath": "/home/a_rahim/KDU/FYP Project/finalapp/src/Truffle - Backend/contracts/Merchant.sol",
  "compiler": {
    "name": "solc",
    "version": "0.5.0+commit.1d4f565a.Emscripten.clang"
  },
  "schemaVersion": "3.0.1",
  "updatedAt": "2022-10-08T10:48:47.123Z",
  "devdoc": {
    "methods": {}
  },
  "userdoc": {
    "methods": {}
  }
}