{
  "contractName": "Merchant",
  "abi": [
    {
      "constant": true,
      "inputs": [],
      "name": "prodCount",
      "outputs": [
        {
          "name": "",
          "type": "uint256"
        }
      ],
      "payable": false,
      "stateMutability": "view",
      "type": "function",
      "signature": "0x017e19a3"
    },
    {
      "constant": true,
      "inputs": [
        {
          "name": "",
          "type": "uint256"
        }
      ],
      "name": "products",
      "outputs": [
        {
          "name": "prodName",
          "type": "string"
        },
        {
          "name": "price",
          "type": "uint256"
        },
        {
          "name": "stock",
          "type": "uint256"
        },
        {
          "name": "desc",
          "type": "string"
        },
        {
          "name": "storeName",
          "type": "string"
        }
      ],
      "payable": false,
      "stateMutability": "view",
      "type": "function",
      "signature": "0x7acc0b20"
    },
    {
      "constant": true,
      "inputs": [],
      "name": "storecount",
      "outputs": [
        {
          "name": "",
          "type": "uint256"
        }
      ],
      "payable": false,
      "stateMutability": "view",
      "type": "function",
      "signature": "0x9356396b"
    },
    {
      "constant": true,
      "inputs": [
        {
          "name": "",
          "type": "uint256"
        }
      ],
      "name": "Stores",
      "outputs": [
        {
          "name": "name",
          "type": "string"
        },
        {
          "name": "location",
          "type": "string"
        },
        {
          "name": "account",
          "type": "string"
        }
      ],
      "payable": false,
      "stateMutability": "view",
      "type": "function",
      "signature": "0xdb464c8c"
    },
    {
      "constant": false,
      "inputs": [
        {
          "name": "email",
          "type": "string"
        },
        {
          "name": "storeName",
          "type": "string"
        },
        {
          "name": "location",
          "type": "string"
        }
      ],
      "name": "createStore",
      "outputs": [],
      "payable": false,
      "stateMutability": "nonpayable",
      "type": "function",
      "signature": "0x306368d2"
    },
    {
      "constant": false,
      "inputs": [
        {
          "name": "storeCount",
          "type": "uint256"
        },
        {
          "name": "storeName",
          "type": "string"
        },
        {
          "name": "location",
          "type": "string"
        }
      ],
      "name": "editStore",
      "outputs": [],
      "payable": false,
      "stateMutability": "nonpayable",
      "type": "function",
      "signature": "0xeae20011"
    },
    {
      "constant": false,
      "inputs": [
        {
          "name": "storeName",
          "type": "string"
        },
        {
          "name": "name",
          "type": "string"
        },
        {
          "name": "price",
          "type": "uint256"
        },
        {
          "name": "initStock",
          "type": "uint256"
        },
        {
          "name": "description",
          "type": "string"
        }
      ],
      "name": "addProduct",
      "outputs": [],
      "payable": false,
      "stateMutability": "nonpayable",
      "type": "function",
      "signature": "0x6daf0fbb"
    },
    {
      "constant": false,
      "inputs": [
        {
          "name": "prodName",
          "type": "string"
        }
      ],
      "name": "delProduct",
      "outputs": [],
      "payable": false,
      "stateMutability": "nonpayable",
      "type": "function",
      "signature": "0x206c1843"
    }
  ],
  "bytecode": "0x608060405260008055600060025534801561001957600080fd5b50611684806100296000396000f3fe60806040526004361061008e576000357c0100000000000000000000000000000000000000000000000000000000900463ffffffff168063017e19a314610093578063206c1843146100be578063306368d2146101865780636daf0fbb1461037c5780637acc0b20146105865780639356396b14610720578063db464c8c1461074b578063eae20011146108d7575b600080fd5b34801561009f57600080fd5b506100a8610a40565b6040518082815260200191505060405180910390f35b3480156100ca57600080fd5b50610184600480360360208110156100e157600080fd5b81019080803590602001906401000000008111156100fe57600080fd5b82018360208201111561011057600080fd5b8035906020019184600183028401116401000000008311171561013257600080fd5b91908080601f016020809104026020016040519081016040528093929190818152602001838380828437600081840152601f19601f820116905080830192505050505050509192919290505050610a46565b005b34801561019257600080fd5b5061037a600480360360608110156101a957600080fd5b81019080803590602001906401000000008111156101c657600080fd5b8201836020820111156101d857600080fd5b803590602001918460018302840111640100000000831117156101fa57600080fd5b91908080601f016020809104026020016040519081016040528093929190818152602001838380828437600081840152601f19601f8201169050808301925050505050505091929192908035906020019064010000000081111561025d57600080fd5b82018360208201111561026f57600080fd5b8035906020019184600183028401116401000000008311171561029157600080fd5b91908080601f016020809104026020016040519081016040528093929190818152602001838380828437600081840152601f19601f820116905080830192505050505050509192919290803590602001906401000000008111156102f457600080fd5b82018360208201111561030657600080fd5b8035906020019184600183028401116401000000008311171561032857600080fd5b91908080601f016020809104026020016040519081016040528093929190818152602001838380828437600081840152601f19601f820116905080830192505050505050509192919290505050610d20565b005b34801561038857600080fd5b50610584600480360360a081101561039f57600080fd5b81019080803590602001906401000000008111156103bc57600080fd5b8201836020820111156103ce57600080fd5b803590602001918460018302840111640100000000831117156103f057600080fd5b91908080601f016020809104026020016040519081016040528093929190818152602001838380828437600081840152601f19601f8201169050808301925050505050505091929192908035906020019064010000000081111561045357600080fd5b82018360208201111561046557600080fd5b8035906020019184600183028401116401000000008311171561048757600080fd5b91908080601f016020809104026020016040519081016040528093929190818152602001838380828437600081840152601f19601f8201169050808301925050505050505091929192908035906020019092919080359060200190929190803590602001906401000000008111156104fe57600080fd5b82018360208201111561051057600080fd5b8035906020019184600183028401116401000000008311171561053257600080fd5b91908080601f016020809104026020016040519081016040528093929190818152602001838380828437600081840152601f19601f820116905080830192505050505050509192919290505050610dbb565b005b34801561059257600080fd5b506105bf600480360360208110156105a957600080fd5b8101908080359060200190929190505050610e79565b60405180806020018681526020018581526020018060200180602001848103845289818151815260200191508051906020019080838360005b838110156106135780820151818401526020810190506105f8565b50505050905090810190601f1680156106405780820380516001836020036101000a031916815260200191505b50848103835286818151815260200191508051906020019080838360005b8381101561067957808201518184015260208101905061065e565b50505050905090810190601f1680156106a65780820380516001836020036101000a031916815260200191505b50848103825285818151815260200191508051906020019080838360005b838110156106df5780820151818401526020810190506106c4565b50505050905090810190601f16801561070c5780820380516001836020036101000a031916815260200191505b509850505050505050505060405180910390f35b34801561072c57600080fd5b50610735611077565b6040518082815260200191505060405180910390f35b34801561075757600080fd5b506107846004803603602081101561076e57600080fd5b810190808035906020019092919050505061107d565b60405180806020018060200180602001848103845287818151815260200191508051906020019080838360005b838110156107cc5780820151818401526020810190506107b1565b50505050905090810190601f1680156107f95780820380516001836020036101000a031916815260200191505b50848103835286818151815260200191508051906020019080838360005b83811015610832578082015181840152602081019050610817565b50505050905090810190601f16801561085f5780820380516001836020036101000a031916815260200191505b50848103825285818151815260200191508051906020019080838360005b8381101561089857808201518184015260208101905061087d565b50505050905090810190601f1680156108c55780820380516001836020036101000a031916815260200191505b50965050505050505060405180910390f35b3480156108e357600080fd5b50610a3e600480360360608110156108fa57600080fd5b81019080803590602001909291908035906020019064010000000081111561092157600080fd5b82018360208201111561093357600080fd5b8035906020019184600183028401116401000000008311171561095557600080fd5b91908080601f016020809104026020016040519081016040528093929190818152602001838380828437600081840152601f19601f820116905080830192505050505050509192919290803590602001906401000000008111156109b857600080fd5b8201836020820111156109ca57600080fd5b803590602001918460018302840111640100000000831117156109ec57600080fd5b91908080601f016020809104026020016040519081016040528093929190818152602001838380828437600081840152601f19601f82011690508083019250505050505050919291929050505061126f565b005b60025481565b6000600190505b60025481111515610d1c5773__StringLib_____________________________63ef01a9a883600360008581526020019081526020016000206000016040518363ffffffff167c0100000000000000000000000000000000000000000000000000000000028152600401808060200180602001838103835285818151815260200191508051906020019080838360005b83811015610af8578082015181840152602081019050610add565b50505050905090810190601f168015610b255780820380516001836020036101000a031916815260200191505b50838103825284818154600181600116156101000203166002900481526020019150805460018160011615610100020316600290048015610ba75780601f10610b7c57610100808354040283529160200191610ba7565b820191906000526020600020905b815481529060010190602001808311610b8a57829003601f168201915b505094505050505060206040518083038186803b158015610bc757600080fd5b505af4158015610bdb573d6000803e3d6000fd5b505050506040513d6020811015610bf157600080fd5b810190808051906020019092919050505015610d0f57600254811415610c2557600260008154809291906001900391905055505b6020604051908101604052806000815250600360008381526020019081526020016000206000019080519060200190610c5f929190611511565b5060006003600083815260200190815260200160002060010181905550600060036000838152602001908152602001600020600201819055506020604051908101604052806000815250600360008381526020019081526020016000206003019080519060200190610cd2929190611511565b506020604051908101604052806000815250600360008381526020019081526020016000206004019080519060200190610d0d929190611511565b505b8080600101915050610a4d565b5050565b6060604051908101604052808381526020018281526020018481525060016000806000815460010191905081905581526020019081526020016000206000820151816000019080519060200190610d78929190611591565b506020820151816001019080519060200190610d95929190611591565b506040820151816002019080519060200190610db2929190611591565b50905050505050565b60a060405190810160405280858152602001848152602001838152602001828152602001868152506003600060026000815460010191905081905581526020019081526020016000206000820151816000019080519060200190610e20929190611591565b5060208201518160010155604082015181600201556060820151816003019080519060200190610e51929190611591565b506080820151816004019080519060200190610e6e929190611591565b509050505050505050565b6003602052806000526040600020600091509050806000018054600181600116156101000203166002900480601f016020809104026020016040519081016040528092919081815260200182805460018160011615610100020316600290048015610f255780601f10610efa57610100808354040283529160200191610f25565b820191906000526020600020905b815481529060010190602001808311610f0857829003601f168201915b505050505090806001015490806002015490806003018054600181600116156101000203166002900480601f016020809104026020016040519081016040528092919081815260200182805460018160011615610100020316600290048015610fcf5780601f10610fa457610100808354040283529160200191610fcf565b820191906000526020600020905b815481529060010190602001808311610fb257829003601f168201915b505050505090806004018054600181600116156101000203166002900480601f01602080910402602001604051908101604052809291908181526020018280546001816001161561010002031660029004801561106d5780601f106110425761010080835404028352916020019161106d565b820191906000526020600020905b81548152906001019060200180831161105057829003601f168201915b5050505050905085565b60005481565b6001602052806000526040600020600091509050806000018054600181600116156101000203166002900480601f0160208091040260200160405190810160405280929190818152602001828054600181600116156101000203166002900480156111295780601f106110fe57610100808354040283529160200191611129565b820191906000526020600020905b81548152906001019060200180831161110c57829003601f168201915b505050505090806001018054600181600116156101000203166002900480601f0160208091040260200160405190810160405280929190818152602001828054600181600116156101000203166002900480156111c75780601f1061119c576101008083540402835291602001916111c7565b820191906000526020600020905b8154815290600101906020018083116111aa57829003601f168201915b505050505090806002018054600181600116156101000203166002900480601f0160208091040260200160405190810160405280929190818152602001828054600181600116156101000203166002900480156112655780601f1061123a57610100808354040283529160200191611265565b820191906000526020600020905b81548152906001019060200180831161124857829003601f168201915b5050505050905083565b611277611611565b6001600085815260200190815260200160002060606040519081016040529081600082018054600181600116156101000203166002900480601f01602080910402602001604051908101604052809291908181526020018280546001816001161561010002031660029004801561132f5780601f106113045761010080835404028352916020019161132f565b820191906000526020600020905b81548152906001019060200180831161131257829003601f168201915b50505050508152602001600182018054600181600116156101000203166002900480601f0160208091040260200160405190810160405280929190818152602001828054600181600116156101000203166002900480156113d15780601f106113a6576101008083540402835291602001916113d1565b820191906000526020600020905b8154815290600101906020018083116113b457829003601f168201915b50505050508152602001600282018054600181600116156101000203166002900480601f0160208091040260200160405190810160405280929190818152602001828054600181600116156101000203166002900480156114735780601f1061144857610100808354040283529160200191611473565b820191906000526020600020905b81548152906001019060200180831161145657829003601f168201915b505050505081525050905060606040519081016040528084815260200183815260200182604001518152506001600086815260200190815260200160002060008201518160000190805190602001906114cd929190611591565b5060208201518160010190805190602001906114ea929190611591565b506040820151816002019080519060200190611507929190611591565b5090505050505050565b828054600181600116156101000203166002900490600052602060002090601f016020900481019282601f1061155257805160ff1916838001178555611580565b82800160010185558215611580579182015b8281111561157f578251825591602001919060010190611564565b5b50905061158d9190611633565b5090565b828054600181600116156101000203166002900490600052602060002090601f016020900481019282601f106115d257805160ff1916838001178555611600565b82800160010185558215611600579182015b828111156115ff5782518255916020019190600101906115e4565b5b50905061160d9190611633565b5090565b6060604051908101604052806060815260200160608152602001606081525090565b61165591905b80821115611651576000816000905550600101611639565b5090565b9056fea165627a7a72305820da6fb477eaf717f419a50bbcc405a71bf7386c13340cfd01d4cefdaea7045a400029",
  "source": "// SPDX-License-Identifier: MIT\npragma solidity >=0.4.22 <0.9.0;\nimport \"./StringLib.sol\";\n\ncontract Merchant {\n    uint256 public storecount = 0;\n\n    struct store {\n        string name;\n        string location;\n        string account;\n    }\n\n    mapping(uint256 => store) public Stores;\n\n    uint256 public prodCount = 0;\n\n    struct product {\n        string prodName;\n        uint256 price;\n        uint256 stock;\n        string desc;\n        string storeName;\n    }\n\n    mapping(uint256 => product) public products;\n\n    function createStore(\n        string memory email,\n        string memory storeName,\n        string memory location\n    ) public {\n        Stores[++storecount] = store(storeName, location, email);\n    }\n\n    //  Function to just edit the details of an existing store\n    function editStore(\n        uint256 storeCount,\n        string memory storeName,\n        string memory location\n    ) public {\n        store memory _tempstore = Stores[storeCount];\n        Stores[storeCount] = store(storeName, location, _tempstore.account);\n    }\n\n    function addProduct(\n        string memory storeName,\n        string memory name,\n        uint256 price,\n        uint256 initStock,\n        string memory description\n    ) public {\n        products[++prodCount] = product(\n            name,\n            price,\n            initStock,\n            description,\n            storeName\n        );\n    }\n\n    function delProduct(string memory prodName) public {\n        for (uint256 i = 1; i <= prodCount; i++) {\n            if (StringLib.compareTwoStrings(prodName, products[i].prodName)) {\n                if (i == prodCount) {\n                    prodCount--;\n                }\n\n                products[i].prodName = \"\";\n                products[i].price = 0;\n                products[i].stock = 0;\n                products[i].desc = \"\";\n                products[i].storeName = \"\";\n            }\n        }\n    }\n}\n",
  "sourcePath": "/home/a_rahim/KDU/FYP Project/finalapp/src/Truffle - Backend/contracts/Merchant.sol",
  "compiler": {
    "name": "solc",
    "version": "0.5.0+commit.1d4f565a.Emscripten.clang"
  },
  "schemaVersion": "3.0.1",
  "updatedAt": "2022-10-09T05:18:42.880Z",
  "devdoc": {
    "methods": {}
  },
  "userdoc": {
    "methods": {}
  }
}