{
  "contractName": "StringLib",
  "abi": [
    {
      "constant": true,
      "inputs": [
        {
          "name": "s1",
          "type": "string"
        },
        {
          "name": "s2",
          "type": "string"
        }
      ],
      "name": "compareTwoStrings",
      "outputs": [
        {
          "name": "",
          "type": "bool"
        }
      ],
      "payable": false,
      "stateMutability": "pure",
      "type": "function"
    }
  ],
  "bytecode": "0x6102e6610030600b82828239805160001a6073146000811461002057610022565bfe5b5030600052607381538281f3fe7300000000000000000000000000000000000000003014608060405260043610610058576000357c0100000000000000000000000000000000000000000000000000000000900463ffffffff168063ef01a9a81461005d575b600080fd5b6101ad6004803603604081101561007357600080fd5b810190808035906020019064010000000081111561009057600080fd5b8201836020820111156100a257600080fd5b803590602001918460018302840111640100000000831117156100c457600080fd5b91908080601f016020809104026020016040519081016040528093929190818152602001838380828437600081840152601f19601f8201169050808301925050505050505091929192908035906020019064010000000081111561012757600080fd5b82018360208201111561013957600080fd5b8035906020019184600183028401116401000000008311171561015b57600080fd5b91908080601f016020809104026020016040519081016040528093929190818152602001838380828437600081840152601f19601f8201169050808301925050505050505091929192905050506101c7565b604051808215151515815260200191505060405180910390f35b6000816040516020018082805190602001908083835b60208310151561020257805182526020820191506020810190506020830392506101dd565b6001836020036101000a03801982511681845116808217855250505050505090500191505060405160208183030381529060405280519060200120836040516020018082805190602001908083835b6020831015156102765780518252602082019150602081019050602083039250610251565b6001836020036101000a038019825116818451168082178552505050505050905001915050604051602081830303815290604052805190602001201490509291505056fea165627a7a723058203f4f60c9fc2cf4d7881bfa8877b9be0ad2bab0f509174e6c5f441726ccd9d0860029",
  "source": "// SPDX-License-Identifier: MIT\npragma solidity >=0.4.22 <0.9.0;\n\nlibrary StringLib {\n    function compareTwoStrings(string memory s1, string memory s2)\n        public\n        pure\n        returns (bool)\n    {\n        return\n            keccak256(abi.encodePacked(s1)) == keccak256(abi.encodePacked(s2));\n    }\n}\n",
  "sourcePath": "/home/a_rahim/KDU/FYP Project/finalapp/src/Truffle - Backend/contracts/StringLib.sol",
  "compiler": {
    "name": "solc",
    "version": "0.5.0+commit.1d4f565a.Emscripten.clang"
  },
  "schemaVersion": "3.0.1",
  "updatedAt": "2022-10-09T06:36:47.138Z",
  "devdoc": {
    "methods": {}
  },
  "userdoc": {
    "methods": {}
  }
}